{
	"Re-learning Solidity/English Auctions/MyImplementation.sol": {
		"EnglishAuction": {
			"abi": [
				{
					"inputs": [
						{
							"internalType": "address",
							"name": "_nft",
							"type": "address"
						},
						{
							"internalType": "uint256",
							"name": "_nftTokenId",
							"type": "uint256"
						},
						{
							"internalType": "uint256",
							"name": "_startingBid",
							"type": "uint256"
						}
					],
					"stateMutability": "nonpayable",
					"type": "constructor"
				},
				{
					"anonymous": false,
					"inputs": [
						{
							"indexed": true,
							"internalType": "address",
							"name": "account",
							"type": "address"
						},
						{
							"indexed": true,
							"internalType": "uint256",
							"name": "amount",
							"type": "uint256"
						}
					],
					"name": "Bid",
					"type": "event"
				},
				{
					"anonymous": false,
					"inputs": [
						{
							"indexed": false,
							"internalType": "address",
							"name": "account",
							"type": "address"
						},
						{
							"indexed": false,
							"internalType": "uint256",
							"name": "amount",
							"type": "uint256"
						}
					],
					"name": "End",
					"type": "event"
				},
				{
					"anonymous": false,
					"inputs": [
						{
							"indexed": true,
							"internalType": "uint256",
							"name": "time",
							"type": "uint256"
						}
					],
					"name": "Start",
					"type": "event"
				},
				{
					"anonymous": false,
					"inputs": [
						{
							"indexed": false,
							"internalType": "address",
							"name": "account",
							"type": "address"
						},
						{
							"indexed": false,
							"internalType": "uint256",
							"name": "amount",
							"type": "uint256"
						}
					],
					"name": "Withdraw",
					"type": "event"
				},
				{
					"inputs": [],
					"name": "bid",
					"outputs": [],
					"stateMutability": "payable",
					"type": "function"
				},
				{
					"inputs": [
						{
							"internalType": "address",
							"name": "bidder",
							"type": "address"
						}
					],
					"name": "bids",
					"outputs": [
						{
							"internalType": "uint256",
							"name": "bid",
							"type": "uint256"
						}
					],
					"stateMutability": "view",
					"type": "function"
				},
				{
					"inputs": [],
					"name": "end",
					"outputs": [],
					"stateMutability": "nonpayable",
					"type": "function"
				},
				{
					"inputs": [],
					"name": "ended",
					"outputs": [
						{
							"internalType": "bool",
							"name": "",
							"type": "bool"
						}
					],
					"stateMutability": "view",
					"type": "function"
				},
				{
					"inputs": [],
					"name": "endsAt",
					"outputs": [
						{
							"internalType": "uint256",
							"name": "",
							"type": "uint256"
						}
					],
					"stateMutability": "view",
					"type": "function"
				},
				{
					"inputs": [],
					"name": "highestBid",
					"outputs": [
						{
							"internalType": "uint256",
							"name": "",
							"type": "uint256"
						}
					],
					"stateMutability": "view",
					"type": "function"
				},
				{
					"inputs": [],
					"name": "highestBidder",
					"outputs": [
						{
							"internalType": "address",
							"name": "",
							"type": "address"
						}
					],
					"stateMutability": "view",
					"type": "function"
				},
				{
					"inputs": [],
					"name": "nft",
					"outputs": [
						{
							"internalType": "contract IERC721",
							"name": "",
							"type": "address"
						}
					],
					"stateMutability": "view",
					"type": "function"
				},
				{
					"inputs": [],
					"name": "nftTokenId",
					"outputs": [
						{
							"internalType": "uint256",
							"name": "",
							"type": "uint256"
						}
					],
					"stateMutability": "view",
					"type": "function"
				},
				{
					"inputs": [],
					"name": "seller",
					"outputs": [
						{
							"internalType": "address payable",
							"name": "",
							"type": "address"
						}
					],
					"stateMutability": "view",
					"type": "function"
				},
				{
					"inputs": [],
					"name": "start",
					"outputs": [],
					"stateMutability": "nonpayable",
					"type": "function"
				},
				{
					"inputs": [],
					"name": "startAt",
					"outputs": [
						{
							"internalType": "uint32",
							"name": "",
							"type": "uint32"
						}
					],
					"stateMutability": "view",
					"type": "function"
				},
				{
					"inputs": [],
					"name": "started",
					"outputs": [
						{
							"internalType": "bool",
							"name": "",
							"type": "bool"
						}
					],
					"stateMutability": "view",
					"type": "function"
				},
				{
					"inputs": [],
					"name": "withdraw",
					"outputs": [],
					"stateMutability": "nonpayable",
					"type": "function"
				}
			],
			"devdoc": {
				"kind": "dev",
				"methods": {},
				"version": 1
			},
			"evm": {
				"assembly": "    /* \"Re-learning Solidity/English Auctions/MyImplementation.sol\":138:5127  contract EnglishAuction {... */\n  mstore(0x40, 0xe0)\n    /* \"Re-learning Solidity/English Auctions/MyImplementation.sol\":1252:1568  constructor (... */\n  callvalue\n  dup1\n  iszero\n  tag_1\n  jumpi\n  0x00\n  dup1\n  revert\ntag_1:\n  pop\n  mload(0x40)\n  sub(codesize, bytecodeSize)\n  dup1\n  bytecodeSize\n  dup4\n  codecopy\n  dup2\n  add\n  0x40\n  dup2\n  swap1\n  mstore\n  tag_2\n  swap2\n  tag_3\n  jump\t// in\ntag_2:\n  sub(shl(0xa0, 0x01), 0x01)\n    /* \"Re-learning Solidity/English Auctions/MyImplementation.sol\":1369:1388  nft = IERC721(_nft) */\n  dup4\n  and\n  0x80\n  mstore\n    /* \"Re-learning Solidity/English Auctions/MyImplementation.sol\":1399:1423  nftTokenId = _nftTokenId */\n  0xa0\n  dup3\n  swap1\n  mstore\n    /* \"Re-learning Solidity/English Auctions/MyImplementation.sol\":1451:1461  msg.sender */\n  caller\n    /* \"Re-learning Solidity/English Auctions/MyImplementation.sol\":1434:1462  seller = payable(msg.sender) */\n  0xc0\n  mstore\n    /* \"Re-learning Solidity/English Auctions/MyImplementation.sol\":1473:1483  highestBid */\n  0x03\n    /* \"Re-learning Solidity/English Auctions/MyImplementation.sol\":1473:1498  highestBid = _startingBid */\n  dup2\n  swap1\n  sstore\n    /* \"Re-learning Solidity/English Auctions/MyImplementation.sol\":1535:1559  block.timestamp + 7 days */\n  tag_6\n    /* \"Re-learning Solidity/English Auctions/MyImplementation.sol\":1535:1550  block.timestamp */\n  timestamp\n    /* \"Re-learning Solidity/English Auctions/MyImplementation.sol\":1553:1559  7 days */\n  0x093a80\n    /* \"Re-learning Solidity/English Auctions/MyImplementation.sol\":1535:1559  block.timestamp + 7 days */\n  tag_7\n  jump\t// in\ntag_6:\n    /* \"Re-learning Solidity/English Auctions/MyImplementation.sol\":1519:1560  endsAt = uint32(block.timestamp + 7 days) */\n  0xffffffff\n  and\n    /* \"Re-learning Solidity/English Auctions/MyImplementation.sol\":1519:1525  endsAt */\n  0x01\n    /* \"Re-learning Solidity/English Auctions/MyImplementation.sol\":1519:1560  endsAt = uint32(block.timestamp + 7 days) */\n  sstore\n  pop\n    /* \"Re-learning Solidity/English Auctions/MyImplementation.sol\":138:5127  contract EnglishAuction {... */\n  tag_9\n  swap2\n  pop\n  pop\n  jump\n    /* \"#utility.yul\":14:530   */\ntag_3:\n    /* \"#utility.yul\":102:108   */\n  0x00\n    /* \"#utility.yul\":110:116   */\n  dup1\n    /* \"#utility.yul\":118:124   */\n  0x00\n    /* \"#utility.yul\":171:173   */\n  0x60\n    /* \"#utility.yul\":159:168   */\n  dup5\n    /* \"#utility.yul\":150:157   */\n  dup7\n    /* \"#utility.yul\":146:169   */\n  sub\n    /* \"#utility.yul\":142:174   */\n  slt\n    /* \"#utility.yul\":139:191   */\n  iszero\n  tag_11\n  jumpi\n    /* \"#utility.yul\":187:188   */\n  0x00\n    /* \"#utility.yul\":184:185   */\n  dup1\n    /* \"#utility.yul\":177:189   */\n  revert\n    /* \"#utility.yul\":139:191   */\ntag_11:\n    /* \"#utility.yul\":213:229   */\n  dup4\n  mload\n  sub(shl(0xa0, 0x01), 0x01)\n    /* \"#utility.yul\":258:289   */\n  dup2\n  and\n    /* \"#utility.yul\":248:290   */\n  dup2\n  eq\n    /* \"#utility.yul\":238:308   */\n  tag_12\n  jumpi\n    /* \"#utility.yul\":304:305   */\n  0x00\n    /* \"#utility.yul\":301:302   */\n  dup1\n    /* \"#utility.yul\":294:306   */\n  revert\n    /* \"#utility.yul\":238:308   */\ntag_12:\n    /* \"#utility.yul\":398:400   */\n  0x20\n    /* \"#utility.yul\":383:401   */\n  dup6\n  add\n    /* \"#utility.yul\":377:402   */\n  mload\n    /* \"#utility.yul\":494:496   */\n  0x40\n    /* \"#utility.yul\":479:497   */\n  swap1\n  swap6\n  add\n    /* \"#utility.yul\":473:498   */\n  mload\n    /* \"#utility.yul\":327:332   */\n  swap1\n  swap7\n    /* \"#utility.yul\":377:402   */\n  swap5\n  swap6\n  pop\n    /* \"#utility.yul\":473:498   */\n  swap4\n    /* \"#utility.yul\":14:530   */\n  swap3\n  pop\n  pop\n  pop\n  jump\t// out\n    /* \"#utility.yul\":535:757   */\ntag_7:\n    /* \"#utility.yul\":600:609   */\n  dup1\n  dup3\n  add\n    /* \"#utility.yul\":621:631   */\n  dup1\n  dup3\n  gt\n    /* \"#utility.yul\":618:751   */\n  iszero\n  tag_14\n  jumpi\n    /* \"#utility.yul\":673:683   */\n  0x4e487b71\n    /* \"#utility.yul\":668:671   */\n  0xe0\n    /* \"#utility.yul\":664:684   */\n  shl\n    /* \"#utility.yul\":661:662   */\n  0x00\n    /* \"#utility.yul\":654:685   */\n  mstore\n    /* \"#utility.yul\":708:712   */\n  0x11\n    /* \"#utility.yul\":705:706   */\n  0x04\n    /* \"#utility.yul\":698:713   */\n  mstore\n    /* \"#utility.yul\":736:740   */\n  0x24\n    /* \"#utility.yul\":733:734   */\n  0x00\n    /* \"#utility.yul\":726:741   */\n  revert\n    /* \"#utility.yul\":618:751   */\ntag_14:\n    /* \"#utility.yul\":535:757   */\n  swap3\n  swap2\n  pop\n  pop\n  jump\t// out\ntag_9:\n    /* \"Re-learning Solidity/English Auctions/MyImplementation.sol\":138:5127  contract EnglishAuction {... */\n  mload(0x80)\n  mload(0xa0)\n  mload(0xc0)\n  codecopy(0x00, dataOffset(sub_0), dataSize(sub_0))\n  0x00\n  assignImmutable(\"0xa65d03add95baf22e482ebcd3423aa9bf9d8b0ec3fca2831960080b84536d360\")\n  0x00\n  assignImmutable(\"0xc7d00ca82740de2eef417cfa47c2970dbdec49b2a6d15c64e85f83cf97939ca5\")\n  0x00\n  assignImmutable(\"0x0330c0d84464f890f3c81afbba7a3a05e0e864ec2e31676dedcb075b2bf855a0\")\n  return(0x00, dataSize(sub_0))\nstop\n\nsub_0: assembly {\n        /* \"Re-learning Solidity/English Auctions/MyImplementation.sol\":138:5127  contract EnglishAuction {... */\n      mstore(0x40, 0x80)\n      jumpi(tag_1, lt(calldatasize, 0x04))\n      shr(0xe0, calldataload(0x00))\n      dup1\n      0x62ea82db\n      gt\n      tag_16\n      jumpi\n      dup1\n      0xbe9a6555\n      gt\n      tag_17\n      jumpi\n      dup1\n      0xbe9a6555\n      eq\n      tag_12\n      jumpi\n      dup1\n      0xc7446565\n      eq\n      tag_13\n      jumpi\n      dup1\n      0xd57bde79\n      eq\n      tag_14\n      jumpi\n      dup1\n      0xefbe1c1c\n      eq\n      tag_15\n      jumpi\n      0x00\n      dup1\n      revert\n    tag_17:\n      dup1\n      0x62ea82db\n      eq\n      tag_9\n      jumpi\n      dup1\n      0x7e830574\n      eq\n      tag_10\n      jumpi\n      dup1\n      0x91f90157\n      eq\n      tag_11\n      jumpi\n      0x00\n      dup1\n      revert\n    tag_16:\n      dup1\n      0x1998aeef\n      gt\n      tag_18\n      jumpi\n      dup1\n      0x1998aeef\n      eq\n      tag_5\n      jumpi\n      dup1\n      0x1f2698ab\n      eq\n      tag_6\n      jumpi\n      dup1\n      0x3ccfd60b\n      eq\n      tag_7\n      jumpi\n      dup1\n      0x47ccca02\n      eq\n      tag_8\n      jumpi\n      0x00\n      dup1\n      revert\n    tag_18:\n      dup1\n      0x08551a53\n      eq\n      tag_2\n      jumpi\n      dup1\n      0x0a09284a\n      eq\n      tag_3\n      jumpi\n      dup1\n      0x12fa6feb\n      eq\n      tag_4\n      jumpi\n    tag_1:\n      0x00\n      dup1\n      revert\n        /* \"Re-learning Solidity/English Auctions/MyImplementation.sol\":728:767  address payable public immutable seller */\n    tag_2:\n      callvalue\n      dup1\n      iszero\n      tag_19\n      jumpi\n      0x00\n      dup1\n      revert\n    tag_19:\n      pop\n      tag_20\n      immutable(\"0xa65d03add95baf22e482ebcd3423aa9bf9d8b0ec3fca2831960080b84536d360\")\n      dup2\n      jump\n    tag_20:\n      mload(0x40)\n      sub(shl(0xa0, 0x01), 0x01)\n        /* \"#utility.yul\":194:226   */\n      swap1\n      swap2\n      and\n        /* \"#utility.yul\":176:227   */\n      dup2\n      mstore\n        /* \"#utility.yul\":164:166   */\n      0x20\n        /* \"#utility.yul\":149:167   */\n      add\n        /* \"Re-learning Solidity/English Auctions/MyImplementation.sol\":728:767  address payable public immutable seller */\n    tag_22:\n      mload(0x40)\n      dup1\n      swap2\n      sub\n      swap1\n      return\n        /* \"Re-learning Solidity/English Auctions/MyImplementation.sol\":844:865  uint256 public endsAt */\n    tag_3:\n      callvalue\n      dup1\n      iszero\n      tag_24\n      jumpi\n      0x00\n      dup1\n      revert\n    tag_24:\n      pop\n      tag_25\n      sload(0x01)\n      dup2\n      jump\n    tag_25:\n      mload(0x40)\n        /* \"#utility.yul\":384:409   */\n      swap1\n      dup2\n      mstore\n        /* \"#utility.yul\":372:374   */\n      0x20\n        /* \"#utility.yul\":357:375   */\n      add\n        /* \"Re-learning Solidity/English Auctions/MyImplementation.sol\":844:865  uint256 public endsAt */\n      tag_22\n        /* \"#utility.yul\":238:415   */\n      jump\n        /* \"Re-learning Solidity/English Auctions/MyImplementation.sol\":1130:1147  bool public ended */\n    tag_4:\n      callvalue\n      dup1\n      iszero\n      tag_29\n      jumpi\n      0x00\n      dup1\n      revert\n    tag_29:\n      pop\n      sload(0x04)\n      tag_30\n      swap1\n      0x0100\n      swap1\n      div\n      0xff\n      and\n      dup2\n      jump\n    tag_30:\n      mload(0x40)\n        /* \"#utility.yul\":585:599   */\n      swap1\n      iszero\n        /* \"#utility.yul\":578:600   */\n      iszero\n        /* \"#utility.yul\":560:601   */\n      dup2\n      mstore\n        /* \"#utility.yul\":548:550   */\n      0x20\n        /* \"#utility.yul\":533:551   */\n      add\n        /* \"Re-learning Solidity/English Auctions/MyImplementation.sol\":1130:1147  bool public ended */\n      tag_22\n        /* \"#utility.yul\":420:607   */\n      jump\n        /* \"Re-learning Solidity/English Auctions/MyImplementation.sol\":2124:2851  function bid() public payable {... */\n    tag_5:\n      tag_34\n      tag_35\n      jump\t// in\n    tag_34:\n      stop\n        /* \"Re-learning Solidity/English Auctions/MyImplementation.sol\":1059:1078  bool public started */\n    tag_6:\n      callvalue\n      dup1\n      iszero\n      tag_36\n      jumpi\n      0x00\n      dup1\n      revert\n    tag_36:\n      pop\n      sload(0x04)\n      tag_30\n      swap1\n      0xff\n      and\n      dup2\n      jump\n        /* \"Re-learning Solidity/English Auctions/MyImplementation.sol\":2859:3222  function withdraw() public {... */\n    tag_7:\n      callvalue\n      dup1\n      iszero\n      tag_40\n      jumpi\n      0x00\n      dup1\n      revert\n    tag_40:\n      pop\n      tag_34\n      tag_42\n      jump\t// in\n        /* \"Re-learning Solidity/English Auctions/MyImplementation.sol\":574:602  IERC721 public immutable nft */\n    tag_8:\n      callvalue\n      dup1\n      iszero\n      tag_43\n      jumpi\n      0x00\n      dup1\n      revert\n    tag_43:\n      pop\n      tag_20\n      immutable(\"0x0330c0d84464f890f3c81afbba7a3a05e0e864ec2e31676dedcb075b2bf855a0\")\n      dup2\n      jump\n        /* \"Re-learning Solidity/English Auctions/MyImplementation.sol\":1193:1243  mapping(address bidder => uint256 bid) public bids */\n    tag_9:\n      callvalue\n      dup1\n      iszero\n      tag_48\n      jumpi\n      0x00\n      dup1\n      revert\n    tag_48:\n      pop\n      tag_25\n      tag_50\n      calldatasize\n      0x04\n      tag_51\n      jump\t// in\n    tag_50:\n      mstore(0x20, 0x05)\n      0x00\n      swap1\n      dup2\n      mstore\n      0x40\n      swap1\n      keccak256\n      sload\n      dup2\n      jump\n        /* \"Re-learning Solidity/English Auctions/MyImplementation.sol\":654:689  uint256 public immutable nftTokenId */\n    tag_10:\n      callvalue\n      dup1\n      iszero\n      tag_54\n      jumpi\n      0x00\n      dup1\n      revert\n    tag_54:\n      pop\n      tag_25\n      immutable(\"0xc7d00ca82740de2eef417cfa47c2970dbdec49b2a6d15c64e85f83cf97939ca5\")\n      dup2\n      jump\n        /* \"Re-learning Solidity/English Auctions/MyImplementation.sol\":909:937  address public highestBidder */\n    tag_11:\n      callvalue\n      dup1\n      iszero\n      tag_58\n      jumpi\n      0x00\n      dup1\n      revert\n    tag_58:\n      pop\n      sload(0x02)\n      tag_20\n      swap1\n      sub(shl(0xa0, 0x01), 0x01)\n      and\n      dup2\n      jump\n        /* \"Re-learning Solidity/English Auctions/MyImplementation.sol\":1576:2116  function start() public {... */\n    tag_12:\n      callvalue\n      dup1\n      iszero\n      tag_63\n      jumpi\n      0x00\n      dup1\n      revert\n    tag_63:\n      pop\n      tag_34\n      tag_65\n      jump\t// in\n        /* \"Re-learning Solidity/English Auctions/MyImplementation.sol\":796:817  uint32 public startAt */\n    tag_13:\n      callvalue\n      dup1\n      iszero\n      tag_66\n      jumpi\n      0x00\n      dup1\n      revert\n    tag_66:\n      pop\n      sload(0x00)\n      tag_67\n      swap1\n      0xffffffff\n      and\n      dup2\n      jump\n    tag_67:\n      mload(0x40)\n        /* \"#utility.yul\":1508:1518   */\n      0xffffffff\n        /* \"#utility.yul\":1496:1519   */\n      swap1\n      swap2\n      and\n        /* \"#utility.yul\":1478:1520   */\n      dup2\n      mstore\n        /* \"#utility.yul\":1466:1468   */\n      0x20\n        /* \"#utility.yul\":1451:1469   */\n      add\n        /* \"Re-learning Solidity/English Auctions/MyImplementation.sol\":796:817  uint32 public startAt */\n      tag_22\n        /* \"#utility.yul\":1334:1526   */\n      jump\n        /* \"Re-learning Solidity/English Auctions/MyImplementation.sol\":981:1006  uint256 public highestBid */\n    tag_14:\n      callvalue\n      dup1\n      iszero\n      tag_71\n      jumpi\n      0x00\n      dup1\n      revert\n    tag_71:\n      pop\n      tag_25\n      sload(0x03)\n      dup2\n      jump\n        /* \"Re-learning Solidity/English Auctions/MyImplementation.sol\":3230:5122  function end() public {... */\n    tag_15:\n      callvalue\n      dup1\n      iszero\n      tag_75\n      jumpi\n      0x00\n      dup1\n      revert\n    tag_75:\n      pop\n      tag_34\n      tag_77\n      jump\t// in\n        /* \"Re-learning Solidity/English Auctions/MyImplementation.sol\":2124:2851  function bid() public payable {... */\n    tag_35:\n        /* \"Re-learning Solidity/English Auctions/MyImplementation.sol\":2213:2220  started */\n      and(0xff, sload(0x04))\n        /* \"Re-learning Solidity/English Auctions/MyImplementation.sol\":2205:2244  require(started, \"bid not started yet\") */\n      tag_79\n      jumpi\n      mload(0x40)\n      shl(0xe5, 0x461bcd)\n      dup2\n      mstore\n        /* \"#utility.yul\":1733:1735   */\n      0x20\n        /* \"Re-learning Solidity/English Auctions/MyImplementation.sol\":2205:2244  require(started, \"bid not started yet\") */\n      0x04\n      dup3\n      add\n        /* \"#utility.yul\":1715:1736   */\n      mstore\n        /* \"#utility.yul\":1772:1774   */\n      0x13\n        /* \"#utility.yul\":1752:1770   */\n      0x24\n      dup3\n      add\n        /* \"#utility.yul\":1745:1775   */\n      mstore\n      shl(0x6a, 0x189a59081b9bdd081cdd185c9d1959081e595d)\n        /* \"#utility.yul\":1791:1809   */\n      0x44\n      dup3\n      add\n        /* \"#utility.yul\":1784:1833   */\n      mstore\n        /* \"#utility.yul\":1850:1868   */\n      0x64\n      add\n        /* \"Re-learning Solidity/English Auctions/MyImplementation.sol\":2205:2244  require(started, \"bid not started yet\") */\n    tag_80:\n      mload(0x40)\n      dup1\n      swap2\n      sub\n      swap1\n      revert\n    tag_79:\n        /* \"Re-learning Solidity/English Auctions/MyImplementation.sol\":2330:2336  endsAt */\n      sload(0x01)\n        /* \"Re-learning Solidity/English Auctions/MyImplementation.sol\":2312:2327  block.timestamp */\n      timestamp\n        /* \"Re-learning Solidity/English Auctions/MyImplementation.sol\":2312:2336  block.timestamp < endsAt */\n      lt\n        /* \"Re-learning Solidity/English Auctions/MyImplementation.sol\":2304:2354  require(block.timestamp < endsAt, \"Bidding ended\") */\n      tag_82\n      jumpi\n      mload(0x40)\n      shl(0xe5, 0x461bcd)\n      dup2\n      mstore\n        /* \"#utility.yul\":2081:2083   */\n      0x20\n        /* \"Re-learning Solidity/English Auctions/MyImplementation.sol\":2304:2354  require(block.timestamp < endsAt, \"Bidding ended\") */\n      0x04\n      dup3\n      add\n        /* \"#utility.yul\":2063:2084   */\n      mstore\n        /* \"#utility.yul\":2120:2122   */\n      0x0d\n        /* \"#utility.yul\":2100:2118   */\n      0x24\n      dup3\n      add\n        /* \"#utility.yul\":2093:2123   */\n      mstore\n      shl(0x9a, 0x109a59191a5b99c8195b991959)\n        /* \"#utility.yul\":2139:2157   */\n      0x44\n      dup3\n      add\n        /* \"#utility.yul\":2132:2175   */\n      mstore\n        /* \"#utility.yul\":2192:2210   */\n      0x64\n      add\n        /* \"Re-learning Solidity/English Auctions/MyImplementation.sol\":2304:2354  require(block.timestamp < endsAt, \"Bidding ended\") */\n      tag_80\n        /* \"#utility.yul\":1879:2216   */\n      jump\n        /* \"Re-learning Solidity/English Auctions/MyImplementation.sol\":2304:2354  require(block.timestamp < endsAt, \"Bidding ended\") */\n    tag_82:\n        /* \"Re-learning Solidity/English Auctions/MyImplementation.sol\":2456:2466  highestBid */\n      sload(0x03)\n        /* \"Re-learning Solidity/English Auctions/MyImplementation.sol\":2444:2453  msg.value */\n      callvalue\n        /* \"Re-learning Solidity/English Auctions/MyImplementation.sol\":2444:2466  msg.value > highestBid */\n      gt\n        /* \"Re-learning Solidity/English Auctions/MyImplementation.sol\":2436:2504  require(msg.value > highestBid, \"Your bid is less than highest bid\") */\n      tag_85\n      jumpi\n      mload(0x40)\n      shl(0xe5, 0x461bcd)\n      dup2\n      mstore\n        /* \"#utility.yul\":2423:2425   */\n      0x20\n        /* \"Re-learning Solidity/English Auctions/MyImplementation.sol\":2436:2504  require(msg.value > highestBid, \"Your bid is less than highest bid\") */\n      0x04\n      dup3\n      add\n        /* \"#utility.yul\":2405:2426   */\n      mstore\n        /* \"#utility.yul\":2462:2464   */\n      0x21\n        /* \"#utility.yul\":2442:2460   */\n      0x24\n      dup3\n      add\n        /* \"#utility.yul\":2435:2465   */\n      mstore\n        /* \"#utility.yul\":2501:2535   */\n      0x596f757220626964206973206c657373207468616e2068696768657374206269\n        /* \"#utility.yul\":2481:2499   */\n      0x44\n      dup3\n      add\n        /* \"#utility.yul\":2474:2536   */\n      mstore\n      shl(0xfa, 0x19)\n        /* \"#utility.yul\":2552:2570   */\n      0x64\n      dup3\n      add\n        /* \"#utility.yul\":2545:2576   */\n      mstore\n        /* \"#utility.yul\":2593:2612   */\n      0x84\n      add\n        /* \"Re-learning Solidity/English Auctions/MyImplementation.sol\":2436:2504  require(msg.value > highestBid, \"Your bid is less than highest bid\") */\n      tag_80\n        /* \"#utility.yul\":2221:2618   */\n      jump\n        /* \"Re-learning Solidity/English Auctions/MyImplementation.sol\":2436:2504  require(msg.value > highestBid, \"Your bid is less than highest bid\") */\n    tag_85:\n        /* \"Re-learning Solidity/English Auctions/MyImplementation.sol\":2632:2645  highestBidder */\n      and(sub(shl(0xa0, 0x01), 0x01), sload(0x02))\n        /* \"Re-learning Solidity/English Auctions/MyImplementation.sol\":2632:2659  highestBidder != address(0) */\n      iszero\n        /* \"Re-learning Solidity/English Auctions/MyImplementation.sol\":2629:2720  if(highestBidder != address(0)){... */\n      tag_88\n      jumpi\n        /* \"Re-learning Solidity/English Auctions/MyImplementation.sol\":2698:2708  highestBid */\n      sload(0x03)\n        /* \"Re-learning Solidity/English Auctions/MyImplementation.sol\":2680:2693  highestBidder */\n      and(sub(shl(0xa0, 0x01), 0x01), sload(0x02))\n        /* \"Re-learning Solidity/English Auctions/MyImplementation.sol\":2675:2694  bids[highestBidder] */\n      0x00\n      swap1\n      dup2\n      mstore\n        /* \"Re-learning Solidity/English Auctions/MyImplementation.sol\":2675:2679  bids */\n      0x05\n        /* \"Re-learning Solidity/English Auctions/MyImplementation.sol\":2675:2694  bids[highestBidder] */\n      0x20\n      mstore\n      0x40\n      dup2\n      keccak256\n        /* \"Re-learning Solidity/English Auctions/MyImplementation.sol\":2675:2708  bids[highestBidder] += highestBid */\n      dup1\n      sload\n        /* \"Re-learning Solidity/English Auctions/MyImplementation.sol\":2675:2694  bids[highestBidder] */\n      swap1\n      swap2\n      swap1\n        /* \"Re-learning Solidity/English Auctions/MyImplementation.sol\":2675:2708  bids[highestBidder] += highestBid */\n      tag_89\n      swap1\n        /* \"Re-learning Solidity/English Auctions/MyImplementation.sol\":2698:2708  highestBid */\n      dup5\n      swap1\n        /* \"Re-learning Solidity/English Auctions/MyImplementation.sol\":2675:2708  bids[highestBidder] += highestBid */\n      tag_90\n      jump\t// in\n    tag_89:\n      swap1\n      swap2\n      sstore\n      pop\n      pop\n        /* \"Re-learning Solidity/English Auctions/MyImplementation.sol\":2629:2720  if(highestBidder != address(0)){... */\n    tag_88:\n        /* \"Re-learning Solidity/English Auctions/MyImplementation.sol\":2753:2762  msg.value */\n      callvalue\n        /* \"Re-learning Solidity/English Auctions/MyImplementation.sol\":2740:2750  highestBid */\n      0x03\n        /* \"Re-learning Solidity/English Auctions/MyImplementation.sol\":2740:2762  highestBid = msg.value */\n      dup2\n      swap1\n      sstore\n        /* \"Re-learning Solidity/English Auctions/MyImplementation.sol\":2773:2786  highestBidder */\n      0x02\n        /* \"Re-learning Solidity/English Auctions/MyImplementation.sol\":2773:2799  highestBidder = msg.sender */\n      dup1\n      sload\n      not(sub(shl(0xa0, 0x01), 0x01))\n      and\n        /* \"Re-learning Solidity/English Auctions/MyImplementation.sol\":2789:2799  msg.sender */\n      caller\n        /* \"Re-learning Solidity/English Auctions/MyImplementation.sol\":2773:2799  highestBidder = msg.sender */\n      swap1\n      dup2\n      or\n      swap1\n      swap2\n      sstore\n        /* \"Re-learning Solidity/English Auctions/MyImplementation.sol\":2817:2843  Bid(msg.sender, msg.value) */\n      mload(0x40)\n      0xe684a55f31b79eca403df938249029212a5925ec6be8012e099b45bc1019e5d2\n      swap1\n        /* \"Re-learning Solidity/English Auctions/MyImplementation.sol\":2773:2786  highestBidder */\n      0x00\n      swap1\n        /* \"Re-learning Solidity/English Auctions/MyImplementation.sol\":2817:2843  Bid(msg.sender, msg.value) */\n      log3\n        /* \"Re-learning Solidity/English Auctions/MyImplementation.sol\":2124:2851  function bid() public payable {... */\n      jump\t// out\n        /* \"Re-learning Solidity/English Auctions/MyImplementation.sol\":2859:3222  function withdraw() public {... */\n    tag_42:\n        /* \"Re-learning Solidity/English Auctions/MyImplementation.sol\":2977:2990  highestBidder */\n      and(sub(shl(0xa0, 0x01), 0x01), sload(0x02))\n        /* \"Re-learning Solidity/English Auctions/MyImplementation.sol\":2963:2973  msg.sender */\n      caller\n        /* \"Re-learning Solidity/English Auctions/MyImplementation.sol\":2963:2990  msg.sender != highestBidder */\n      sub\n        /* \"Re-learning Solidity/English Auctions/MyImplementation.sol\":2955:3033  require(msg.sender != highestBidder, \"Highest bidder cannot withdraw his bid\") */\n      tag_92\n      jumpi\n      mload(0x40)\n      shl(0xe5, 0x461bcd)\n      dup2\n      mstore\n        /* \"#utility.yul\":3087:3089   */\n      0x20\n        /* \"Re-learning Solidity/English Auctions/MyImplementation.sol\":2955:3033  require(msg.sender != highestBidder, \"Highest bidder cannot withdraw his bid\") */\n      0x04\n      dup3\n      add\n        /* \"#utility.yul\":3069:3090   */\n      mstore\n        /* \"#utility.yul\":3126:3128   */\n      0x26\n        /* \"#utility.yul\":3106:3124   */\n      0x24\n      dup3\n      add\n        /* \"#utility.yul\":3099:3129   */\n      mstore\n        /* \"#utility.yul\":3165:3199   */\n      0x48696768657374206269646465722063616e6e6f742077697468647261772068\n        /* \"#utility.yul\":3145:3163   */\n      0x44\n      dup3\n      add\n        /* \"#utility.yul\":3138:3200   */\n      mstore\n      shl(0xd2, 0x1a5cc8189a59)\n        /* \"#utility.yul\":3216:3234   */\n      0x64\n      dup3\n      add\n        /* \"#utility.yul\":3209:3245   */\n      mstore\n        /* \"#utility.yul\":3262:3281   */\n      0x84\n      add\n        /* \"Re-learning Solidity/English Auctions/MyImplementation.sol\":2955:3033  require(msg.sender != highestBidder, \"Highest bidder cannot withdraw his bid\") */\n      tag_80\n        /* \"#utility.yul\":2885:3287   */\n      jump\n        /* \"Re-learning Solidity/English Auctions/MyImplementation.sol\":2955:3033  require(msg.sender != highestBidder, \"Highest bidder cannot withdraw his bid\") */\n    tag_92:\n        /* \"Re-learning Solidity/English Auctions/MyImplementation.sol\":3063:3073  msg.sender */\n      caller\n        /* \"Re-learning Solidity/English Auctions/MyImplementation.sol\":3044:3055  uint256 bal */\n      0x00\n        /* \"Re-learning Solidity/English Auctions/MyImplementation.sol\":3058:3074  bids[msg.sender] */\n      dup2\n      dup2\n      mstore\n        /* \"Re-learning Solidity/English Auctions/MyImplementation.sol\":3058:3062  bids */\n      0x05\n        /* \"Re-learning Solidity/English Auctions/MyImplementation.sol\":3058:3074  bids[msg.sender] */\n      0x20\n      mstore\n      0x40\n      dup1\n      dup3\n      keccak256\n      dup1\n      sload\n        /* \"Re-learning Solidity/English Auctions/MyImplementation.sol\":3085:3105  bids[msg.sender] = 0 */\n      swap1\n      dup4\n      swap1\n      sstore\n        /* \"Re-learning Solidity/English Auctions/MyImplementation.sol\":3135:3166  msg.sender.call{value: bal}(\"\") */\n      swap1\n      mload\n        /* \"Re-learning Solidity/English Auctions/MyImplementation.sol\":3058:3074  bids[msg.sender] */\n      swap1\n      swap3\n        /* \"Re-learning Solidity/English Auctions/MyImplementation.sol\":3063:3073  msg.sender */\n      swap1\n        /* \"Re-learning Solidity/English Auctions/MyImplementation.sol\":3058:3074  bids[msg.sender] */\n      dup4\n      swap1\n        /* \"Re-learning Solidity/English Auctions/MyImplementation.sol\":3044:3055  uint256 bal */\n      dup4\n        /* \"Re-learning Solidity/English Auctions/MyImplementation.sol\":3135:3166  msg.sender.call{value: bal}(\"\") */\n      dup2\n        /* \"Re-learning Solidity/English Auctions/MyImplementation.sol\":3044:3055  uint256 bal */\n      dup2\n        /* \"Re-learning Solidity/English Auctions/MyImplementation.sol\":3135:3166  msg.sender.call{value: bal}(\"\") */\n      dup2\n        /* \"Re-learning Solidity/English Auctions/MyImplementation.sol\":3058:3074  bids[msg.sender] */\n      dup6\n        /* \"Re-learning Solidity/English Auctions/MyImplementation.sol\":3063:3073  msg.sender */\n      dup8\n        /* \"Re-learning Solidity/English Auctions/MyImplementation.sol\":3135:3166  msg.sender.call{value: bal}(\"\") */\n      gas\n      call\n      swap3\n      pop\n      pop\n      pop\n      returndatasize\n      dup1\n      0x00\n      dup2\n      eq\n      tag_99\n      jumpi\n      mload(0x40)\n      swap2\n      pop\n      and(add(returndatasize, 0x3f), not(0x1f))\n      dup3\n      add\n      0x40\n      mstore\n      returndatasize\n      dup3\n      mstore\n      returndatasize\n      0x00\n      0x20\n      dup5\n      add\n      returndatacopy\n      jump(tag_98)\n    tag_99:\n      0x60\n      swap2\n      pop\n    tag_98:\n      pop\n        /* \"Re-learning Solidity/English Auctions/MyImplementation.sol\":3116:3166  (bool success, ) = msg.sender.call{value: bal}(\"\") */\n      pop\n      swap1\n      pop\n        /* \"Re-learning Solidity/English Auctions/MyImplementation.sol\":3187:3194  success */\n      dup1\n        /* \"Re-learning Solidity/English Auctions/MyImplementation.sol\":3179:3214  require(success, \"Transfer failed\") */\n      tag_100\n      jumpi\n      mload(0x40)\n      shl(0xe5, 0x461bcd)\n      dup2\n      mstore\n        /* \"#utility.yul\":3704:3706   */\n      0x20\n        /* \"Re-learning Solidity/English Auctions/MyImplementation.sol\":3179:3214  require(success, \"Transfer failed\") */\n      0x04\n      dup3\n      add\n        /* \"#utility.yul\":3686:3707   */\n      mstore\n        /* \"#utility.yul\":3743:3745   */\n      0x0f\n        /* \"#utility.yul\":3723:3741   */\n      0x24\n      dup3\n      add\n        /* \"#utility.yul\":3716:3746   */\n      mstore\n      shl(0x8a, 0x151c985b9cd9995c8819985a5b1959)\n        /* \"#utility.yul\":3762:3780   */\n      0x44\n      dup3\n      add\n        /* \"#utility.yul\":3755:3800   */\n      mstore\n        /* \"#utility.yul\":3817:3835   */\n      0x64\n      add\n        /* \"Re-learning Solidity/English Auctions/MyImplementation.sol\":3179:3214  require(success, \"Transfer failed\") */\n      tag_80\n        /* \"#utility.yul\":3502:3841   */\n      jump\n        /* \"Re-learning Solidity/English Auctions/MyImplementation.sol\":3179:3214  require(success, \"Transfer failed\") */\n    tag_100:\n        /* \"Re-learning Solidity/English Auctions/MyImplementation.sol\":2886:3222  {... */\n      pop\n      pop\n        /* \"Re-learning Solidity/English Auctions/MyImplementation.sol\":2859:3222  function withdraw() public {... */\n      jump\t// out\n        /* \"Re-learning Solidity/English Auctions/MyImplementation.sol\":1576:2116  function start() public {... */\n    tag_65:\n        /* \"Re-learning Solidity/English Auctions/MyImplementation.sol\":1661:1671  msg.sender */\n      caller\n      sub(shl(0xa0, 0x01), 0x01)\n        /* \"Re-learning Solidity/English Auctions/MyImplementation.sol\":1675:1681  seller */\n      immutable(\"0xa65d03add95baf22e482ebcd3423aa9bf9d8b0ec3fca2831960080b84536d360\")\n        /* \"Re-learning Solidity/English Auctions/MyImplementation.sol\":1661:1681  msg.sender == seller */\n      and\n      eq\n        /* \"Re-learning Solidity/English Auctions/MyImplementation.sol\":1653:1715  require(msg.sender == seller, \"Only seller can start auction\") */\n      tag_104\n      jumpi\n      mload(0x40)\n      shl(0xe5, 0x461bcd)\n      dup2\n      mstore\n        /* \"#utility.yul\":4048:4050   */\n      0x20\n        /* \"Re-learning Solidity/English Auctions/MyImplementation.sol\":1653:1715  require(msg.sender == seller, \"Only seller can start auction\") */\n      0x04\n      dup3\n      add\n        /* \"#utility.yul\":4030:4051   */\n      mstore\n        /* \"#utility.yul\":4087:4089   */\n      0x1d\n        /* \"#utility.yul\":4067:4085   */\n      0x24\n      dup3\n      add\n        /* \"#utility.yul\":4060:4090   */\n      mstore\n        /* \"#utility.yul\":4126:4157   */\n      0x4f6e6c792073656c6c65722063616e2073746172742061756374696f6e000000\n        /* \"#utility.yul\":4106:4124   */\n      0x44\n      dup3\n      add\n        /* \"#utility.yul\":4099:4158   */\n      mstore\n        /* \"#utility.yul\":4175:4193   */\n      0x64\n      add\n        /* \"Re-learning Solidity/English Auctions/MyImplementation.sol\":1653:1715  require(msg.sender == seller, \"Only seller can start auction\") */\n      tag_80\n        /* \"#utility.yul\":3846:4199   */\n      jump\n        /* \"Re-learning Solidity/English Auctions/MyImplementation.sol\":1653:1715  require(msg.sender == seller, \"Only seller can start auction\") */\n    tag_104:\n        /* \"Re-learning Solidity/English Auctions/MyImplementation.sol\":1782:1789  started */\n      and(0xff, sload(0x04))\n        /* \"Re-learning Solidity/English Auctions/MyImplementation.sol\":1781:1789  !started */\n      iszero\n        /* \"Re-learning Solidity/English Auctions/MyImplementation.sol\":1773:1821  require(!started, \"Auction has already started\") */\n      tag_107\n      jumpi\n      mload(0x40)\n      shl(0xe5, 0x461bcd)\n      dup2\n      mstore\n        /* \"#utility.yul\":4406:4408   */\n      0x20\n        /* \"Re-learning Solidity/English Auctions/MyImplementation.sol\":1773:1821  require(!started, \"Auction has already started\") */\n      0x04\n      dup3\n      add\n        /* \"#utility.yul\":4388:4409   */\n      mstore\n        /* \"#utility.yul\":4445:4447   */\n      0x1b\n        /* \"#utility.yul\":4425:4443   */\n      0x24\n      dup3\n      add\n        /* \"#utility.yul\":4418:4448   */\n      mstore\n        /* \"#utility.yul\":4484:4513   */\n      0x41756374696f6e2068617320616c726561647920737461727465640000000000\n        /* \"#utility.yul\":4464:4482   */\n      0x44\n      dup3\n      add\n        /* \"#utility.yul\":4457:4514   */\n      mstore\n        /* \"#utility.yul\":4531:4549   */\n      0x64\n      add\n        /* \"Re-learning Solidity/English Auctions/MyImplementation.sol\":1773:1821  require(!started, \"Auction has already started\") */\n      tag_80\n        /* \"#utility.yul\":4204:4555   */\n      jump\n        /* \"Re-learning Solidity/English Auctions/MyImplementation.sol\":1773:1821  require(!started, \"Auction has already started\") */\n    tag_107:\n        /* \"Re-learning Solidity/English Auctions/MyImplementation.sol\":1842:1849  started */\n      0x04\n        /* \"Re-learning Solidity/English Auctions/MyImplementation.sol\":1842:1856  started = true */\n      dup1\n      sload\n        /* \"Re-learning Solidity/English Auctions/MyImplementation.sol\":1852:1856  true */\n      0x01\n      not(0xff)\n        /* \"Re-learning Solidity/English Auctions/MyImplementation.sol\":1842:1856  started = true */\n      swap1\n      swap2\n      and\n      or\n      swap1\n      sstore\n      0x00\n        /* \"Re-learning Solidity/English Auctions/MyImplementation.sol\":1867:1900  startAt = uint32(block.timestamp) */\n      dup1\n      sload\n      not(0xffffffff)\n      and\n        /* \"Re-learning Solidity/English Auctions/MyImplementation.sol\":1884:1899  block.timestamp */\n      timestamp\n        /* \"Re-learning Solidity/English Auctions/MyImplementation.sol\":1867:1900  startAt = uint32(block.timestamp) */\n      0xffffffff\n      dup2\n      and\n      swap2\n      swap1\n      swap2\n      or\n      swap1\n      swap2\n      sstore\n        /* \"Re-learning Solidity/English Auctions/MyImplementation.sol\":1927:1951  block.timestamp + 7 days */\n      tag_110\n      swap1\n        /* \"Re-learning Solidity/English Auctions/MyImplementation.sol\":1945:1951  7 days */\n      0x093a80\n        /* \"Re-learning Solidity/English Auctions/MyImplementation.sol\":1927:1951  block.timestamp + 7 days */\n      tag_90\n      jump\t// in\n    tag_110:\n        /* \"Re-learning Solidity/English Auctions/MyImplementation.sol\":1911:1952  endsAt = uint32(block.timestamp + 7 days) */\n      0xffffffff\n      and\n        /* \"Re-learning Solidity/English Auctions/MyImplementation.sol\":1911:1917  endsAt */\n      0x01\n        /* \"Re-learning Solidity/English Auctions/MyImplementation.sol\":1911:1952  endsAt = uint32(block.timestamp + 7 days) */\n      sstore\n        /* \"Re-learning Solidity/English Auctions/MyImplementation.sol\":2011:2066  nft.safeTransferFrom(seller, address(this), nftTokenId) */\n      mload(0x40)\n      shl(0xe1, 0x21421707)\n      dup2\n      mstore\n      sub(shl(0xa0, 0x01), 0x01)\n        /* \"Re-learning Solidity/English Auctions/MyImplementation.sol\":2032:2038  seller */\n      immutable(\"0xa65d03add95baf22e482ebcd3423aa9bf9d8b0ec3fca2831960080b84536d360\")\n        /* \"#utility.yul\":4788:4820   */\n      dup2\n      and\n        /* \"Re-learning Solidity/English Auctions/MyImplementation.sol\":2011:2066  nft.safeTransferFrom(seller, address(this), nftTokenId) */\n      0x04\n      dup4\n      add\n        /* \"#utility.yul\":4770:4821   */\n      mstore\n        /* \"Re-learning Solidity/English Auctions/MyImplementation.sol\":2048:2052  this */\n      address\n        /* \"#utility.yul\":4837:4855   */\n      0x24\n      dup4\n      add\n        /* \"#utility.yul\":4830:4890   */\n      mstore\n        /* \"Re-learning Solidity/English Auctions/MyImplementation.sol\":2055:2065  nftTokenId */\n      immutable(\"0xc7d00ca82740de2eef417cfa47c2970dbdec49b2a6d15c64e85f83cf97939ca5\")\n        /* \"#utility.yul\":4906:4924   */\n      0x44\n      dup4\n      add\n        /* \"#utility.yul\":4899:4933   */\n      mstore\n        /* \"Re-learning Solidity/English Auctions/MyImplementation.sol\":2011:2014  nft */\n      immutable(\"0x0330c0d84464f890f3c81afbba7a3a05e0e864ec2e31676dedcb075b2bf855a0\")\n        /* \"Re-learning Solidity/English Auctions/MyImplementation.sol\":2011:2031  nft.safeTransferFrom */\n      and\n      swap1\n      0x42842e0e\n      swap1\n        /* \"#utility.yul\":4743:4761   */\n      0x64\n      add\n        /* \"Re-learning Solidity/English Auctions/MyImplementation.sol\":2011:2066  nft.safeTransferFrom(seller, address(this), nftTokenId) */\n      0x00\n      mload(0x40)\n      dup1\n      dup4\n      sub\n      dup2\n      0x00\n      dup8\n      dup1\n      extcodesize\n      iszero\n      dup1\n      iszero\n      tag_113\n      jumpi\n      0x00\n      dup1\n      revert\n    tag_113:\n      pop\n      gas\n      call\n      iszero\n      dup1\n      iszero\n      tag_115\n      jumpi\n      returndatasize\n      0x00\n      dup1\n      returndatacopy\n      revert(0x00, returndatasize)\n    tag_115:\n      pop\n      pop\n        /* \"Re-learning Solidity/English Auctions/MyImplementation.sol\":2084:2106  Start(block.timestamp) */\n      mload(0x40)\n        /* \"Re-learning Solidity/English Auctions/MyImplementation.sol\":2090:2105  block.timestamp */\n      timestamp\n      swap3\n      pop\n        /* \"Re-learning Solidity/English Auctions/MyImplementation.sol\":2084:2106  Start(block.timestamp) */\n      0xf06a29c94c6f4edc1085072972d9441f7603e81c8535a308f214285d0653c850\n      swap2\n      pop\n      0x00\n      swap1\n      log2\n        /* \"Re-learning Solidity/English Auctions/MyImplementation.sol\":1576:2116  function start() public {... */\n      jump\t// out\n        /* \"Re-learning Solidity/English Auctions/MyImplementation.sol\":3230:5122  function end() public {... */\n    tag_77:\n        /* \"Re-learning Solidity/English Auctions/MyImplementation.sol\":3334:3340  endsAt */\n      sload(0x01)\n        /* \"Re-learning Solidity/English Auctions/MyImplementation.sol\":3316:3331  block.timestamp */\n      timestamp\n        /* \"Re-learning Solidity/English Auctions/MyImplementation.sol\":3316:3340  block.timestamp > endsAt */\n      gt\n        /* \"Re-learning Solidity/English Auctions/MyImplementation.sol\":3308:3366  require(block.timestamp > endsAt, \"Auction not ended yet\") */\n      tag_117\n      jumpi\n      mload(0x40)\n      shl(0xe5, 0x461bcd)\n      dup2\n      mstore\n        /* \"#utility.yul\":5146:5148   */\n      0x20\n        /* \"Re-learning Solidity/English Auctions/MyImplementation.sol\":3308:3366  require(block.timestamp > endsAt, \"Auction not ended yet\") */\n      0x04\n      dup3\n      add\n        /* \"#utility.yul\":5128:5149   */\n      mstore\n        /* \"#utility.yul\":5185:5187   */\n      0x15\n        /* \"#utility.yul\":5165:5183   */\n      0x24\n      dup3\n      add\n        /* \"#utility.yul\":5158:5188   */\n      mstore\n      shl(0x5a, 0x105d58dd1a5bdb881b9bdd08195b991959081e595d)\n        /* \"#utility.yul\":5204:5222   */\n      0x44\n      dup3\n      add\n        /* \"#utility.yul\":5197:5248   */\n      mstore\n        /* \"#utility.yul\":5265:5283   */\n      0x64\n      add\n        /* \"Re-learning Solidity/English Auctions/MyImplementation.sol\":3308:3366  require(block.timestamp > endsAt, \"Auction not ended yet\") */\n      tag_80\n        /* \"#utility.yul\":4944:5289   */\n      jump\n        /* \"Re-learning Solidity/English Auctions/MyImplementation.sol\":3308:3366  require(block.timestamp > endsAt, \"Auction not ended yet\") */\n    tag_117:\n        /* \"Re-learning Solidity/English Auctions/MyImplementation.sol\":3386:3391  ended */\n      sload(0x04)\n      0x0100\n      swap1\n      div\n      0xff\n      and\n        /* \"Re-learning Solidity/English Auctions/MyImplementation.sol\":3385:3391  !ended */\n      iszero\n        /* \"Re-learning Solidity/English Auctions/MyImplementation.sol\":3377:3392  require(!ended) */\n      tag_120\n      jumpi\n      0x00\n      dup1\n      revert\n    tag_120:\n        /* \"Re-learning Solidity/English Auctions/MyImplementation.sol\":3563:3576  highestBidder */\n      and(sub(shl(0xa0, 0x01), 0x01), sload(0x02))\n        /* \"Re-learning Solidity/English Auctions/MyImplementation.sol\":3563:3590  highestBidder != address(0) */\n      iszero\n        /* \"Re-learning Solidity/English Auctions/MyImplementation.sol\":3560:5113  if(highestBidder != address(0)) {... */\n      tag_121\n      jumpi\n        /* \"Re-learning Solidity/English Auctions/MyImplementation.sol\":3746:3759  highestBidder */\n      and(sub(shl(0xa0, 0x01), 0x01), sload(0x02))\n        /* \"Re-learning Solidity/English Auctions/MyImplementation.sol\":3708:3738  uint256 highestBidderTotalBids */\n      0x00\n        /* \"Re-learning Solidity/English Auctions/MyImplementation.sol\":3741:3760  bids[highestBidder] */\n      swap1\n      dup2\n      mstore\n        /* \"Re-learning Solidity/English Auctions/MyImplementation.sol\":3741:3745  bids */\n      0x05\n        /* \"Re-learning Solidity/English Auctions/MyImplementation.sol\":3741:3760  bids[highestBidder] */\n      0x20\n      mstore\n      0x40\n      dup2\n      keccak256\n      dup1\n      sload\n        /* \"Re-learning Solidity/English Auctions/MyImplementation.sol\":3775:3798  bids[highestBidder] = 0 */\n      swap1\n      dup3\n      swap1\n      sstore\n        /* \"Re-learning Solidity/English Auctions/MyImplementation.sol\":3835:3845  highestBid */\n      0x03\n      dup1\n      sload\n        /* \"Re-learning Solidity/English Auctions/MyImplementation.sol\":3860:3874  highestBid = 0 */\n      swap3\n      swap1\n      sstore\n        /* \"Re-learning Solidity/English Auctions/MyImplementation.sol\":3741:3760  bids[highestBidder] */\n      swap1\n        /* \"Re-learning Solidity/English Auctions/MyImplementation.sol\":3892:3927  highestBidderTotalBids > highestBid */\n      dup2\n      iszero\n        /* \"Re-learning Solidity/English Auctions/MyImplementation.sol\":3889:4669  if(highestBidderTotalBids > highestBid) {... */\n      tag_122\n      jumpi\n        /* \"Re-learning Solidity/English Auctions/MyImplementation.sol\":4154:4167  highestBidder */\n      sload(0x02)\n        /* \"Re-learning Solidity/English Auctions/MyImplementation.sol\":4137:4149  bool success */\n      0x00\n      swap1\n      sub(shl(0xa0, 0x01), 0x01)\n        /* \"Re-learning Solidity/English Auctions/MyImplementation.sol\":4154:4167  highestBidder */\n      and\n        /* \"Re-learning Solidity/English Auctions/MyImplementation.sol\":4180:4216  highestBidderTotalBids - _highestBid */\n      tag_123\n        /* \"Re-learning Solidity/English Auctions/MyImplementation.sol\":4205:4216  _highestBid */\n      dup4\n        /* \"Re-learning Solidity/English Auctions/MyImplementation.sol\":4180:4202  highestBidderTotalBids */\n      dup6\n        /* \"Re-learning Solidity/English Auctions/MyImplementation.sol\":4180:4216  highestBidderTotalBids - _highestBid */\n      tag_124\n      jump\t// in\n    tag_123:\n        /* \"Re-learning Solidity/English Auctions/MyImplementation.sol\":4154:4221  highestBidder.call{value: highestBidderTotalBids - _highestBid}(\"\") */\n      mload(0x40)\n      0x00\n      dup2\n      dup2\n      dup2\n      dup6\n      dup8\n      gas\n      call\n      swap3\n      pop\n      pop\n      pop\n      returndatasize\n      dup1\n      0x00\n      dup2\n      eq\n      tag_128\n      jumpi\n      mload(0x40)\n      swap2\n      pop\n      and(add(returndatasize, 0x3f), not(0x1f))\n      dup3\n      add\n      0x40\n      mstore\n      returndatasize\n      dup3\n      mstore\n      returndatasize\n      0x00\n      0x20\n      dup5\n      add\n      returndatacopy\n      jump(tag_127)\n    tag_128:\n      0x60\n      swap2\n      pop\n    tag_127:\n      pop\n        /* \"Re-learning Solidity/English Auctions/MyImplementation.sol\":4136:4221  (bool success,) = highestBidder.call{value: highestBidderTotalBids - _highestBid}(\"\") */\n      pop\n      swap1\n      pop\n        /* \"Re-learning Solidity/English Auctions/MyImplementation.sol\":4248:4255  success */\n      dup1\n        /* \"Re-learning Solidity/English Auctions/MyImplementation.sol\":4240:4275  require(success, \"Transfer Failed\") */\n      tag_129\n      jumpi\n      mload(0x40)\n      shl(0xe5, 0x461bcd)\n      dup2\n      mstore\n      0x04\n      add\n      tag_80\n      swap1\n      tag_131\n      jump\t// in\n    tag_129:\n        /* \"Re-learning Solidity/English Auctions/MyImplementation.sol\":3929:4291  {... */\n      pop\n        /* \"Re-learning Solidity/English Auctions/MyImplementation.sol\":3889:4669  if(highestBidderTotalBids > highestBid) {... */\n      jump(tag_132)\n    tag_122:\n        /* \"Re-learning Solidity/English Auctions/MyImplementation.sol\":4532:4545  highestBidder */\n      sload(0x02)\n        /* \"Re-learning Solidity/English Auctions/MyImplementation.sol\":4515:4527  bool success */\n      0x00\n      swap1\n      sub(shl(0xa0, 0x01), 0x01)\n        /* \"Re-learning Solidity/English Auctions/MyImplementation.sol\":4532:4545  highestBidder */\n      and\n        /* \"Re-learning Solidity/English Auctions/MyImplementation.sol\":4558:4594  _highestBid - highestBidderTotalBids */\n      tag_133\n        /* \"Re-learning Solidity/English Auctions/MyImplementation.sol\":4572:4594  highestBidderTotalBids */\n      dup5\n        /* \"Re-learning Solidity/English Auctions/MyImplementation.sol\":4558:4569  _highestBid */\n      dup5\n        /* \"Re-learning Solidity/English Auctions/MyImplementation.sol\":4558:4594  _highestBid - highestBidderTotalBids */\n      tag_124\n      jump\t// in\n    tag_133:\n        /* \"Re-learning Solidity/English Auctions/MyImplementation.sol\":4532:4599  highestBidder.call{value: _highestBid - highestBidderTotalBids}(\"\") */\n      mload(0x40)\n      0x00\n      dup2\n      dup2\n      dup2\n      dup6\n      dup8\n      gas\n      call\n      swap3\n      pop\n      pop\n      pop\n      returndatasize\n      dup1\n      0x00\n      dup2\n      eq\n      tag_137\n      jumpi\n      mload(0x40)\n      swap2\n      pop\n      and(add(returndatasize, 0x3f), not(0x1f))\n      dup3\n      add\n      0x40\n      mstore\n      returndatasize\n      dup3\n      mstore\n      returndatasize\n      0x00\n      0x20\n      dup5\n      add\n      returndatacopy\n      jump(tag_136)\n    tag_137:\n      0x60\n      swap2\n      pop\n    tag_136:\n      pop\n        /* \"Re-learning Solidity/English Auctions/MyImplementation.sol\":4514:4599  (bool success,) = highestBidder.call{value: _highestBid - highestBidderTotalBids}(\"\") */\n      pop\n      swap1\n      pop\n        /* \"Re-learning Solidity/English Auctions/MyImplementation.sol\":4626:4633  success */\n      dup1\n        /* \"Re-learning Solidity/English Auctions/MyImplementation.sol\":4618:4653  require(success, \"Transfer Failed\") */\n      tag_138\n      jumpi\n      mload(0x40)\n      shl(0xe5, 0x461bcd)\n      dup2\n      mstore\n      0x04\n      add\n      tag_80\n      swap1\n      tag_131\n      jump\t// in\n    tag_138:\n        /* \"Re-learning Solidity/English Auctions/MyImplementation.sol\":4310:4669  {... */\n      pop\n        /* \"Re-learning Solidity/English Auctions/MyImplementation.sol\":3889:4669  if(highestBidderTotalBids > highestBid) {... */\n    tag_132:\n        /* \"Re-learning Solidity/English Auctions/MyImplementation.sol\":4784:4797  highestBidder */\n      sload(0x02)\n        /* \"Re-learning Solidity/English Auctions/MyImplementation.sol\":4748:4810  nft.safeTransferFrom(address(this), highestBidder, nftTokenId) */\n      mload(0x40)\n      shl(0xe1, 0x21421707)\n      dup2\n      mstore\n        /* \"Re-learning Solidity/English Auctions/MyImplementation.sol\":4777:4781  this */\n      address\n        /* \"Re-learning Solidity/English Auctions/MyImplementation.sol\":4748:4810  nft.safeTransferFrom(address(this), highestBidder, nftTokenId) */\n      0x04\n      dup3\n      add\n        /* \"#utility.yul\":4770:4821   */\n      mstore\n      sub(shl(0xa0, 0x01), 0x01)\n        /* \"Re-learning Solidity/English Auctions/MyImplementation.sol\":4784:4797  highestBidder */\n      swap2\n      dup3\n      and\n        /* \"#utility.yul\":4837:4855   */\n      0x24\n      dup3\n      add\n        /* \"#utility.yul\":4830:4890   */\n      mstore\n        /* \"Re-learning Solidity/English Auctions/MyImplementation.sol\":4799:4809  nftTokenId */\n      immutable(\"0xc7d00ca82740de2eef417cfa47c2970dbdec49b2a6d15c64e85f83cf97939ca5\")\n        /* \"#utility.yul\":4906:4924   */\n      0x44\n      dup3\n      add\n        /* \"#utility.yul\":4899:4933   */\n      mstore\n        /* \"Re-learning Solidity/English Auctions/MyImplementation.sol\":4748:4751  nft */\n      immutable(\"0x0330c0d84464f890f3c81afbba7a3a05e0e864ec2e31676dedcb075b2bf855a0\")\n        /* \"Re-learning Solidity/English Auctions/MyImplementation.sol\":4748:4768  nft.safeTransferFrom */\n      swap1\n      swap2\n      and\n      swap1\n      0x42842e0e\n      swap1\n        /* \"#utility.yul\":4743:4761   */\n      0x64\n      add\n        /* \"Re-learning Solidity/English Auctions/MyImplementation.sol\":4748:4810  nft.safeTransferFrom(address(this), highestBidder, nftTokenId) */\n      0x00\n      mload(0x40)\n      dup1\n      dup4\n      sub\n      dup2\n      0x00\n      dup8\n      dup1\n      extcodesize\n      iszero\n      dup1\n      iszero\n      tag_142\n      jumpi\n      0x00\n      dup1\n      revert\n    tag_142:\n      pop\n      gas\n      call\n      iszero\n      dup1\n      iszero\n      tag_144\n      jumpi\n      returndatasize\n      0x00\n      dup1\n      returndatacopy\n      revert(0x00, returndatasize)\n    tag_144:\n      pop\n      pop\n      pop\n      pop\n        /* \"Re-learning Solidity/English Auctions/MyImplementation.sol\":4863:4875  bool success */\n      0x00\n        /* \"Re-learning Solidity/English Auctions/MyImplementation.sol\":4880:4886  seller */\n      immutable(\"0xa65d03add95baf22e482ebcd3423aa9bf9d8b0ec3fca2831960080b84536d360\")\n      sub(shl(0xa0, 0x01), 0x01)\n        /* \"Re-learning Solidity/English Auctions/MyImplementation.sol\":4880:4891  seller.call */\n      and\n        /* \"Re-learning Solidity/English Auctions/MyImplementation.sol\":4899:4910  _highestBid */\n      dup3\n        /* \"Re-learning Solidity/English Auctions/MyImplementation.sol\":4880:4915  seller.call{value: _highestBid}(\"\") */\n      mload(0x40)\n      0x00\n      mload(0x40)\n      dup1\n      dup4\n      sub\n      dup2\n      dup6\n      dup8\n      gas\n      call\n      swap3\n      pop\n      pop\n      pop\n      returndatasize\n      dup1\n      0x00\n      dup2\n      eq\n      tag_148\n      jumpi\n      mload(0x40)\n      swap2\n      pop\n      and(add(returndatasize, 0x3f), not(0x1f))\n      dup3\n      add\n      0x40\n      mstore\n      returndatasize\n      dup3\n      mstore\n      returndatasize\n      0x00\n      0x20\n      dup5\n      add\n      returndatacopy\n      jump(tag_147)\n    tag_148:\n      0x60\n      swap2\n      pop\n    tag_147:\n      pop\n        /* \"Re-learning Solidity/English Auctions/MyImplementation.sol\":4862:4915  (bool success,) = seller.call{value: _highestBid}(\"\") */\n      pop\n      swap1\n      pop\n        /* \"Re-learning Solidity/English Auctions/MyImplementation.sol\":4938:4945  success */\n      dup1\n        /* \"Re-learning Solidity/English Auctions/MyImplementation.sol\":4930:4965  require(success, \"Transfer Failed\") */\n      tag_149\n      jumpi\n      mload(0x40)\n      shl(0xe5, 0x461bcd)\n      dup2\n      mstore\n      0x04\n      add\n      tag_80\n      swap1\n      tag_131\n      jump\t// in\n    tag_149:\n        /* \"Re-learning Solidity/English Auctions/MyImplementation.sol\":3592:4977  {... */\n      pop\n      pop\n      pop\n        /* \"Re-learning Solidity/English Auctions/MyImplementation.sol\":3230:5122  function end() public {... */\n      jump\t// out\n        /* \"Re-learning Solidity/English Auctions/MyImplementation.sol\":3560:5113  if(highestBidder != address(0)) {... */\n    tag_121:\n        /* \"Re-learning Solidity/English Auctions/MyImplementation.sol\":5044:5099  nft.safeTransferFrom(address(this), seller, nftTokenId) */\n      mload(0x40)\n      shl(0xe1, 0x21421707)\n      dup2\n      mstore\n        /* \"Re-learning Solidity/English Auctions/MyImplementation.sol\":5073:5077  this */\n      address\n        /* \"Re-learning Solidity/English Auctions/MyImplementation.sol\":5044:5099  nft.safeTransferFrom(address(this), seller, nftTokenId) */\n      0x04\n      dup3\n      add\n        /* \"#utility.yul\":4770:4821   */\n      mstore\n      sub(shl(0xa0, 0x01), 0x01)\n        /* \"Re-learning Solidity/English Auctions/MyImplementation.sol\":5080:5086  seller */\n      immutable(\"0xa65d03add95baf22e482ebcd3423aa9bf9d8b0ec3fca2831960080b84536d360\")\n        /* \"#utility.yul\":4857:4889   */\n      dup2\n      and\n        /* \"#utility.yul\":4837:4855   */\n      0x24\n      dup4\n      add\n        /* \"#utility.yul\":4830:4890   */\n      mstore\n        /* \"Re-learning Solidity/English Auctions/MyImplementation.sol\":5088:5098  nftTokenId */\n      immutable(\"0xc7d00ca82740de2eef417cfa47c2970dbdec49b2a6d15c64e85f83cf97939ca5\")\n        /* \"#utility.yul\":4906:4924   */\n      0x44\n      dup4\n      add\n        /* \"#utility.yul\":4899:4933   */\n      mstore\n        /* \"Re-learning Solidity/English Auctions/MyImplementation.sol\":5044:5047  nft */\n      immutable(\"0x0330c0d84464f890f3c81afbba7a3a05e0e864ec2e31676dedcb075b2bf855a0\")\n        /* \"Re-learning Solidity/English Auctions/MyImplementation.sol\":5044:5064  nft.safeTransferFrom */\n      and\n      swap1\n      0x42842e0e\n      swap1\n        /* \"#utility.yul\":4743:4761   */\n      0x64\n      add\n        /* \"Re-learning Solidity/English Auctions/MyImplementation.sol\":5044:5099  nft.safeTransferFrom(address(this), seller, nftTokenId) */\n      0x00\n      mload(0x40)\n      dup1\n      dup4\n      sub\n      dup2\n      0x00\n      dup8\n      dup1\n      extcodesize\n      iszero\n      dup1\n      iszero\n      tag_154\n      jumpi\n      0x00\n      dup1\n      revert\n    tag_154:\n      pop\n      gas\n      call\n      iszero\n      dup1\n      iszero\n      tag_156\n      jumpi\n      returndatasize\n      0x00\n      dup1\n      returndatacopy\n      revert(0x00, returndatasize)\n    tag_156:\n      pop\n      pop\n      pop\n      pop\n        /* \"Re-learning Solidity/English Auctions/MyImplementation.sol\":3230:5122  function end() public {... */\n      jump\t// out\n        /* \"#utility.yul\":835:1121   */\n    tag_51:\n        /* \"#utility.yul\":894:900   */\n      0x00\n        /* \"#utility.yul\":947:949   */\n      0x20\n        /* \"#utility.yul\":935:944   */\n      dup3\n        /* \"#utility.yul\":926:933   */\n      dup5\n        /* \"#utility.yul\":922:945   */\n      sub\n        /* \"#utility.yul\":918:950   */\n      slt\n        /* \"#utility.yul\":915:967   */\n      iszero\n      tag_164\n      jumpi\n        /* \"#utility.yul\":963:964   */\n      0x00\n        /* \"#utility.yul\":960:961   */\n      dup1\n        /* \"#utility.yul\":953:965   */\n      revert\n        /* \"#utility.yul\":915:967   */\n    tag_164:\n        /* \"#utility.yul\":989:1012   */\n      dup2\n      calldataload\n      sub(shl(0xa0, 0x01), 0x01)\n        /* \"#utility.yul\":1041:1072   */\n      dup2\n      and\n        /* \"#utility.yul\":1031:1073   */\n      dup2\n      eq\n        /* \"#utility.yul\":1021:1091   */\n      tag_165\n      jumpi\n        /* \"#utility.yul\":1087:1088   */\n      0x00\n        /* \"#utility.yul\":1084:1085   */\n      dup1\n        /* \"#utility.yul\":1077:1089   */\n      revert\n        /* \"#utility.yul\":1021:1091   */\n    tag_165:\n        /* \"#utility.yul\":1110:1115   */\n      swap4\n        /* \"#utility.yul\":835:1121   */\n      swap3\n      pop\n      pop\n      pop\n      jump\t// out\n        /* \"#utility.yul\":2623:2750   */\n    tag_157:\n        /* \"#utility.yul\":2684:2694   */\n      0x4e487b71\n        /* \"#utility.yul\":2679:2682   */\n      0xe0\n        /* \"#utility.yul\":2675:2695   */\n      shl\n        /* \"#utility.yul\":2672:2673   */\n      0x00\n        /* \"#utility.yul\":2665:2696   */\n      mstore\n        /* \"#utility.yul\":2715:2719   */\n      0x11\n        /* \"#utility.yul\":2712:2713   */\n      0x04\n        /* \"#utility.yul\":2705:2720   */\n      mstore\n        /* \"#utility.yul\":2739:2743   */\n      0x24\n        /* \"#utility.yul\":2736:2737   */\n      0x00\n        /* \"#utility.yul\":2729:2744   */\n      revert\n        /* \"#utility.yul\":2755:2880   */\n    tag_90:\n        /* \"#utility.yul\":2820:2829   */\n      dup1\n      dup3\n      add\n        /* \"#utility.yul\":2841:2851   */\n      dup1\n      dup3\n      gt\n        /* \"#utility.yul\":2838:2874   */\n      iszero\n      tag_174\n      jumpi\n        /* \"#utility.yul\":2854:2872   */\n      tag_174\n      tag_157\n      jump\t// in\n    tag_174:\n        /* \"#utility.yul\":2755:2880   */\n      swap3\n      swap2\n      pop\n      pop\n      jump\t// out\n        /* \"#utility.yul\":5294:5422   */\n    tag_124:\n        /* \"#utility.yul\":5361:5370   */\n      dup2\n      dup2\n      sub\n        /* \"#utility.yul\":5382:5393   */\n      dup2\n      dup2\n      gt\n        /* \"#utility.yul\":5379:5416   */\n      iszero\n      tag_174\n      jumpi\n        /* \"#utility.yul\":5396:5414   */\n      tag_174\n      tag_157\n      jump\t// in\n        /* \"#utility.yul\":5427:5766   */\n    tag_131:\n        /* \"#utility.yul\":5629:5631   */\n      0x20\n        /* \"#utility.yul\":5611:5632   */\n      dup1\n      dup3\n      mstore\n        /* \"#utility.yul\":5668:5670   */\n      0x0f\n        /* \"#utility.yul\":5648:5666   */\n      swap1\n      dup3\n      add\n        /* \"#utility.yul\":5641:5671   */\n      mstore\n      shl(0x8a, 0x151c985b9cd9995c8811985a5b1959)\n        /* \"#utility.yul\":5702:5704   */\n      0x40\n        /* \"#utility.yul\":5687:5705   */\n      dup3\n      add\n        /* \"#utility.yul\":5680:5725   */\n      mstore\n        /* \"#utility.yul\":5757:5759   */\n      0x60\n        /* \"#utility.yul\":5742:5760   */\n      add\n      swap1\n        /* \"#utility.yul\":5427:5766   */\n      jump\t// out\n\n    auxdata: 0xa264697066735822122044a8346359a7df0049e5743b3e06162c98e24ffb90763d1da293eca37f0feda164736f6c634300081a0033\n}\n",
				"bytecode": {
					"linkReferences": {},
					"object": "60e060405234801561000f575f80fd5b50604051610cd8380380610cd883398101604081905261002e91610068565b6001600160a01b03831660805260a08290523360c05260038190556100564262093a806100a7565b63ffffffff16600155506100cc915050565b5f805f6060848603121561007a575f80fd5b83516001600160a01b0381168114610090575f80fd5b602085015160409095015190969495509392505050565b808201808211156100c657634e487b7160e01b5f52601160045260245ffd5b92915050565b60805160a05160c051610b9d61013b5f395f818160ee015281816105550152818161066a0152818161097c0152610a2a01525f818161022401528181610698015281816108fa0152610a5201525f81816101c6015281816106be015281816109200152610a780152610b9d5ff3fe6080604052600436106100d9575f3560e01c806362ea82db1161007c578063be9a655511610057578063be9a655514610265578063c744656514610279578063d57bde79146102a9578063efbe1c1c146102be575f80fd5b806362ea82db146101e85780637e8305741461021357806391f9015714610246575f80fd5b80631998aeef116100b75780631998aeef1461017e5780631f2698ab146101885780633ccfd60b146101a157806347ccca02146101b5575f80fd5b806308551a53146100dd5780630a09284a1461012d57806312fa6feb14610150575b5f80fd5b3480156100e8575f80fd5b506101107f000000000000000000000000000000000000000000000000000000000000000081565b6040516001600160a01b0390911681526020015b60405180910390f35b348015610138575f80fd5b5061014260015481565b604051908152602001610124565b34801561015b575f80fd5b5060045461016e90610100900460ff1681565b6040519015158152602001610124565b6101866102d2565b005b348015610193575f80fd5b5060045461016e9060ff1681565b3480156101ac575f80fd5b50610186610443565b3480156101c0575f80fd5b506101107f000000000000000000000000000000000000000000000000000000000000000081565b3480156101f3575f80fd5b50610142610202366004610ad1565b60056020525f908152604090205481565b34801561021e575f80fd5b506101427f000000000000000000000000000000000000000000000000000000000000000081565b348015610251575f80fd5b50600254610110906001600160a01b031681565b348015610270575f80fd5b5061018661054a565b348015610284575f80fd5b505f546102949063ffffffff1681565b60405163ffffffff9091168152602001610124565b3480156102b4575f80fd5b5061014260035481565b3480156102c9575f80fd5b50610186610741565b60045460ff1661031f5760405162461bcd60e51b8152602060048201526013602482015272189a59081b9bdd081cdd185c9d1959081e595d606a1b60448201526064015b60405180910390fd5b60015442106103605760405162461bcd60e51b815260206004820152600d60248201526c109a59191a5b99c8195b991959609a1b6044820152606401610316565b60035434116103bb5760405162461bcd60e51b815260206004820152602160248201527f596f757220626964206973206c657373207468616e20686967686573742062696044820152601960fa1b6064820152608401610316565b6002546001600160a01b0316156103fe576003546002546001600160a01b03165f90815260056020526040812080549091906103f8908490610b12565b90915550505b346003819055600280546001600160a01b031916339081179091556040517fe684a55f31b79eca403df938249029212a5925ec6be8012e099b45bc1019e5d2905f90a3565b6002546001600160a01b031633036104ac5760405162461bcd60e51b815260206004820152602660248201527f48696768657374206269646465722063616e6e6f7420776974686472617720686044820152651a5cc8189a5960d21b6064820152608401610316565b335f81815260056020526040808220805490839055905190929083908381818185875af1925050503d805f81146104fe576040519150601f19603f3d011682016040523d82523d5f602084013e610503565b606091505b50509050806105465760405162461bcd60e51b815260206004820152600f60248201526e151c985b9cd9995c8819985a5b1959608a1b6044820152606401610316565b5050565b336001600160a01b037f000000000000000000000000000000000000000000000000000000000000000016146105c25760405162461bcd60e51b815260206004820152601d60248201527f4f6e6c792073656c6c65722063616e2073746172742061756374696f6e0000006044820152606401610316565b60045460ff16156106155760405162461bcd60e51b815260206004820152601b60248201527f41756374696f6e2068617320616c7265616479207374617274656400000000006044820152606401610316565b60048054600160ff199091161790555f805463ffffffff19164263ffffffff81169190911790915561064a9062093a80610b12565b63ffffffff16600155604051632142170760e11b81526001600160a01b037f0000000000000000000000000000000000000000000000000000000000000000811660048301523060248301527f000000000000000000000000000000000000000000000000000000000000000060448301527f000000000000000000000000000000000000000000000000000000000000000016906342842e0e906064015f604051808303815f87803b1580156106ff575f80fd5b505af1158015610711573d5f803e3d5ffd5b50506040514292507ff06a29c94c6f4edc1085072972d9441f7603e81c8535a308f214285d0653c85091505f90a2565b600154421161078a5760405162461bcd60e51b8152602060048201526015602482015274105d58dd1a5bdb881b9bdd08195b991959081e595d605a1b6044820152606401610316565b600454610100900460ff161561079e575f80fd5b6002546001600160a01b031615610a0d576002546001600160a01b03165f90815260056020526040812080549082905560038054929055908115610859576002545f906001600160a01b03166107f48385610b2b565b6040515f81818185875af1925050503d805f811461082d576040519150601f19603f3d011682016040523d82523d5f602084013e610832565b606091505b50509050806108535760405162461bcd60e51b815260040161031690610b3e565b506108d2565b6002545f906001600160a01b03166108718484610b2b565b6040515f81818185875af1925050503d805f81146108aa576040519150601f19603f3d011682016040523d82523d5f602084013e6108af565b606091505b50509050806108d05760405162461bcd60e51b815260040161031690610b3e565b505b600254604051632142170760e11b81523060048201526001600160a01b0391821660248201527f000000000000000000000000000000000000000000000000000000000000000060448201527f0000000000000000000000000000000000000000000000000000000000000000909116906342842e0e906064015f604051808303815f87803b158015610963575f80fd5b505af1158015610975573d5f803e3d5ffd5b505050505f7f00000000000000000000000000000000000000000000000000000000000000006001600160a01b0316826040515f6040518083038185875af1925050503d805f81146109e2576040519150601f19603f3d011682016040523d82523d5f602084013e6109e7565b606091505b5050905080610a085760405162461bcd60e51b815260040161031690610b3e565b505050565b604051632142170760e11b81523060048201526001600160a01b037f0000000000000000000000000000000000000000000000000000000000000000811660248301527f000000000000000000000000000000000000000000000000000000000000000060448301527f000000000000000000000000000000000000000000000000000000000000000016906342842e0e906064015f604051808303815f87803b158015610ab9575f80fd5b505af1158015610acb573d5f803e3d5ffd5b50505050565b5f60208284031215610ae1575f80fd5b81356001600160a01b0381168114610af7575f80fd5b9392505050565b634e487b7160e01b5f52601160045260245ffd5b80820180821115610b2557610b25610afe565b92915050565b81810381811115610b2557610b25610afe565b6020808252600f908201526e151c985b9cd9995c8811985a5b1959608a1b60408201526060019056fea264697066735822122044a8346359a7df0049e5743b3e06162c98e24ffb90763d1da293eca37f0feda164736f6c634300081a0033",
					"opcodes": "PUSH1 0xE0 PUSH1 0x40 MSTORE CALLVALUE DUP1 ISZERO PUSH2 0xF JUMPI PUSH0 DUP1 REVERT JUMPDEST POP PUSH1 0x40 MLOAD PUSH2 0xCD8 CODESIZE SUB DUP1 PUSH2 0xCD8 DUP4 CODECOPY DUP2 ADD PUSH1 0x40 DUP2 SWAP1 MSTORE PUSH2 0x2E SWAP2 PUSH2 0x68 JUMP JUMPDEST PUSH1 0x1 PUSH1 0x1 PUSH1 0xA0 SHL SUB DUP4 AND PUSH1 0x80 MSTORE PUSH1 0xA0 DUP3 SWAP1 MSTORE CALLER PUSH1 0xC0 MSTORE PUSH1 0x3 DUP2 SWAP1 SSTORE PUSH2 0x56 TIMESTAMP PUSH3 0x93A80 PUSH2 0xA7 JUMP JUMPDEST PUSH4 0xFFFFFFFF AND PUSH1 0x1 SSTORE POP PUSH2 0xCC SWAP2 POP POP JUMP JUMPDEST PUSH0 DUP1 PUSH0 PUSH1 0x60 DUP5 DUP7 SUB SLT ISZERO PUSH2 0x7A JUMPI PUSH0 DUP1 REVERT JUMPDEST DUP4 MLOAD PUSH1 0x1 PUSH1 0x1 PUSH1 0xA0 SHL SUB DUP2 AND DUP2 EQ PUSH2 0x90 JUMPI PUSH0 DUP1 REVERT JUMPDEST PUSH1 0x20 DUP6 ADD MLOAD PUSH1 0x40 SWAP1 SWAP6 ADD MLOAD SWAP1 SWAP7 SWAP5 SWAP6 POP SWAP4 SWAP3 POP POP POP JUMP JUMPDEST DUP1 DUP3 ADD DUP1 DUP3 GT ISZERO PUSH2 0xC6 JUMPI PUSH4 0x4E487B71 PUSH1 0xE0 SHL PUSH0 MSTORE PUSH1 0x11 PUSH1 0x4 MSTORE PUSH1 0x24 PUSH0 REVERT JUMPDEST SWAP3 SWAP2 POP POP JUMP JUMPDEST PUSH1 0x80 MLOAD PUSH1 0xA0 MLOAD PUSH1 0xC0 MLOAD PUSH2 0xB9D PUSH2 0x13B PUSH0 CODECOPY PUSH0 DUP2 DUP2 PUSH1 0xEE ADD MSTORE DUP2 DUP2 PUSH2 0x555 ADD MSTORE DUP2 DUP2 PUSH2 0x66A ADD MSTORE DUP2 DUP2 PUSH2 0x97C ADD MSTORE PUSH2 0xA2A ADD MSTORE PUSH0 DUP2 DUP2 PUSH2 0x224 ADD MSTORE DUP2 DUP2 PUSH2 0x698 ADD MSTORE DUP2 DUP2 PUSH2 0x8FA ADD MSTORE PUSH2 0xA52 ADD MSTORE PUSH0 DUP2 DUP2 PUSH2 0x1C6 ADD MSTORE DUP2 DUP2 PUSH2 0x6BE ADD MSTORE DUP2 DUP2 PUSH2 0x920 ADD MSTORE PUSH2 0xA78 ADD MSTORE PUSH2 0xB9D PUSH0 RETURN INVALID PUSH1 0x80 PUSH1 0x40 MSTORE PUSH1 0x4 CALLDATASIZE LT PUSH2 0xD9 JUMPI PUSH0 CALLDATALOAD PUSH1 0xE0 SHR DUP1 PUSH4 0x62EA82DB GT PUSH2 0x7C JUMPI DUP1 PUSH4 0xBE9A6555 GT PUSH2 0x57 JUMPI DUP1 PUSH4 0xBE9A6555 EQ PUSH2 0x265 JUMPI DUP1 PUSH4 0xC7446565 EQ PUSH2 0x279 JUMPI DUP1 PUSH4 0xD57BDE79 EQ PUSH2 0x2A9 JUMPI DUP1 PUSH4 0xEFBE1C1C EQ PUSH2 0x2BE JUMPI PUSH0 DUP1 REVERT JUMPDEST DUP1 PUSH4 0x62EA82DB EQ PUSH2 0x1E8 JUMPI DUP1 PUSH4 0x7E830574 EQ PUSH2 0x213 JUMPI DUP1 PUSH4 0x91F90157 EQ PUSH2 0x246 JUMPI PUSH0 DUP1 REVERT JUMPDEST DUP1 PUSH4 0x1998AEEF GT PUSH2 0xB7 JUMPI DUP1 PUSH4 0x1998AEEF EQ PUSH2 0x17E JUMPI DUP1 PUSH4 0x1F2698AB EQ PUSH2 0x188 JUMPI DUP1 PUSH4 0x3CCFD60B EQ PUSH2 0x1A1 JUMPI DUP1 PUSH4 0x47CCCA02 EQ PUSH2 0x1B5 JUMPI PUSH0 DUP1 REVERT JUMPDEST DUP1 PUSH4 0x8551A53 EQ PUSH2 0xDD JUMPI DUP1 PUSH4 0xA09284A EQ PUSH2 0x12D JUMPI DUP1 PUSH4 0x12FA6FEB EQ PUSH2 0x150 JUMPI JUMPDEST PUSH0 DUP1 REVERT JUMPDEST CALLVALUE DUP1 ISZERO PUSH2 0xE8 JUMPI PUSH0 DUP1 REVERT JUMPDEST POP PUSH2 0x110 PUSH32 0x0 DUP2 JUMP JUMPDEST PUSH1 0x40 MLOAD PUSH1 0x1 PUSH1 0x1 PUSH1 0xA0 SHL SUB SWAP1 SWAP2 AND DUP2 MSTORE PUSH1 0x20 ADD JUMPDEST PUSH1 0x40 MLOAD DUP1 SWAP2 SUB SWAP1 RETURN JUMPDEST CALLVALUE DUP1 ISZERO PUSH2 0x138 JUMPI PUSH0 DUP1 REVERT JUMPDEST POP PUSH2 0x142 PUSH1 0x1 SLOAD DUP2 JUMP JUMPDEST PUSH1 0x40 MLOAD SWAP1 DUP2 MSTORE PUSH1 0x20 ADD PUSH2 0x124 JUMP JUMPDEST CALLVALUE DUP1 ISZERO PUSH2 0x15B JUMPI PUSH0 DUP1 REVERT JUMPDEST POP PUSH1 0x4 SLOAD PUSH2 0x16E SWAP1 PUSH2 0x100 SWAP1 DIV PUSH1 0xFF AND DUP2 JUMP JUMPDEST PUSH1 0x40 MLOAD SWAP1 ISZERO ISZERO DUP2 MSTORE PUSH1 0x20 ADD PUSH2 0x124 JUMP JUMPDEST PUSH2 0x186 PUSH2 0x2D2 JUMP JUMPDEST STOP JUMPDEST CALLVALUE DUP1 ISZERO PUSH2 0x193 JUMPI PUSH0 DUP1 REVERT JUMPDEST POP PUSH1 0x4 SLOAD PUSH2 0x16E SWAP1 PUSH1 0xFF AND DUP2 JUMP JUMPDEST CALLVALUE DUP1 ISZERO PUSH2 0x1AC JUMPI PUSH0 DUP1 REVERT JUMPDEST POP PUSH2 0x186 PUSH2 0x443 JUMP JUMPDEST CALLVALUE DUP1 ISZERO PUSH2 0x1C0 JUMPI PUSH0 DUP1 REVERT JUMPDEST POP PUSH2 0x110 PUSH32 0x0 DUP2 JUMP JUMPDEST CALLVALUE DUP1 ISZERO PUSH2 0x1F3 JUMPI PUSH0 DUP1 REVERT JUMPDEST POP PUSH2 0x142 PUSH2 0x202 CALLDATASIZE PUSH1 0x4 PUSH2 0xAD1 JUMP JUMPDEST PUSH1 0x5 PUSH1 0x20 MSTORE PUSH0 SWAP1 DUP2 MSTORE PUSH1 0x40 SWAP1 KECCAK256 SLOAD DUP2 JUMP JUMPDEST CALLVALUE DUP1 ISZERO PUSH2 0x21E JUMPI PUSH0 DUP1 REVERT JUMPDEST POP PUSH2 0x142 PUSH32 0x0 DUP2 JUMP JUMPDEST CALLVALUE DUP1 ISZERO PUSH2 0x251 JUMPI PUSH0 DUP1 REVERT JUMPDEST POP PUSH1 0x2 SLOAD PUSH2 0x110 SWAP1 PUSH1 0x1 PUSH1 0x1 PUSH1 0xA0 SHL SUB AND DUP2 JUMP JUMPDEST CALLVALUE DUP1 ISZERO PUSH2 0x270 JUMPI PUSH0 DUP1 REVERT JUMPDEST POP PUSH2 0x186 PUSH2 0x54A JUMP JUMPDEST CALLVALUE DUP1 ISZERO PUSH2 0x284 JUMPI PUSH0 DUP1 REVERT JUMPDEST POP PUSH0 SLOAD PUSH2 0x294 SWAP1 PUSH4 0xFFFFFFFF AND DUP2 JUMP JUMPDEST PUSH1 0x40 MLOAD PUSH4 0xFFFFFFFF SWAP1 SWAP2 AND DUP2 MSTORE PUSH1 0x20 ADD PUSH2 0x124 JUMP JUMPDEST CALLVALUE DUP1 ISZERO PUSH2 0x2B4 JUMPI PUSH0 DUP1 REVERT JUMPDEST POP PUSH2 0x142 PUSH1 0x3 SLOAD DUP2 JUMP JUMPDEST CALLVALUE DUP1 ISZERO PUSH2 0x2C9 JUMPI PUSH0 DUP1 REVERT JUMPDEST POP PUSH2 0x186 PUSH2 0x741 JUMP JUMPDEST PUSH1 0x4 SLOAD PUSH1 0xFF AND PUSH2 0x31F JUMPI PUSH1 0x40 MLOAD PUSH3 0x461BCD PUSH1 0xE5 SHL DUP2 MSTORE PUSH1 0x20 PUSH1 0x4 DUP3 ADD MSTORE PUSH1 0x13 PUSH1 0x24 DUP3 ADD MSTORE PUSH19 0x189A59081B9BDD081CDD185C9D1959081E595D PUSH1 0x6A SHL PUSH1 0x44 DUP3 ADD MSTORE PUSH1 0x64 ADD JUMPDEST PUSH1 0x40 MLOAD DUP1 SWAP2 SUB SWAP1 REVERT JUMPDEST PUSH1 0x1 SLOAD TIMESTAMP LT PUSH2 0x360 JUMPI PUSH1 0x40 MLOAD PUSH3 0x461BCD PUSH1 0xE5 SHL DUP2 MSTORE PUSH1 0x20 PUSH1 0x4 DUP3 ADD MSTORE PUSH1 0xD PUSH1 0x24 DUP3 ADD MSTORE PUSH13 0x109A59191A5B99C8195B991959 PUSH1 0x9A SHL PUSH1 0x44 DUP3 ADD MSTORE PUSH1 0x64 ADD PUSH2 0x316 JUMP JUMPDEST PUSH1 0x3 SLOAD CALLVALUE GT PUSH2 0x3BB JUMPI PUSH1 0x40 MLOAD PUSH3 0x461BCD PUSH1 0xE5 SHL DUP2 MSTORE PUSH1 0x20 PUSH1 0x4 DUP3 ADD MSTORE PUSH1 0x21 PUSH1 0x24 DUP3 ADD MSTORE PUSH32 0x596F757220626964206973206C657373207468616E2068696768657374206269 PUSH1 0x44 DUP3 ADD MSTORE PUSH1 0x19 PUSH1 0xFA SHL PUSH1 0x64 DUP3 ADD MSTORE PUSH1 0x84 ADD PUSH2 0x316 JUMP JUMPDEST PUSH1 0x2 SLOAD PUSH1 0x1 PUSH1 0x1 PUSH1 0xA0 SHL SUB AND ISZERO PUSH2 0x3FE JUMPI PUSH1 0x3 SLOAD PUSH1 0x2 SLOAD PUSH1 0x1 PUSH1 0x1 PUSH1 0xA0 SHL SUB AND PUSH0 SWAP1 DUP2 MSTORE PUSH1 0x5 PUSH1 0x20 MSTORE PUSH1 0x40 DUP2 KECCAK256 DUP1 SLOAD SWAP1 SWAP2 SWAP1 PUSH2 0x3F8 SWAP1 DUP5 SWAP1 PUSH2 0xB12 JUMP JUMPDEST SWAP1 SWAP2 SSTORE POP POP JUMPDEST CALLVALUE PUSH1 0x3 DUP2 SWAP1 SSTORE PUSH1 0x2 DUP1 SLOAD PUSH1 0x1 PUSH1 0x1 PUSH1 0xA0 SHL SUB NOT AND CALLER SWAP1 DUP2 OR SWAP1 SWAP2 SSTORE PUSH1 0x40 MLOAD PUSH32 0xE684A55F31B79ECA403DF938249029212A5925EC6BE8012E099B45BC1019E5D2 SWAP1 PUSH0 SWAP1 LOG3 JUMP JUMPDEST PUSH1 0x2 SLOAD PUSH1 0x1 PUSH1 0x1 PUSH1 0xA0 SHL SUB AND CALLER SUB PUSH2 0x4AC JUMPI PUSH1 0x40 MLOAD PUSH3 0x461BCD PUSH1 0xE5 SHL DUP2 MSTORE PUSH1 0x20 PUSH1 0x4 DUP3 ADD MSTORE PUSH1 0x26 PUSH1 0x24 DUP3 ADD MSTORE PUSH32 0x48696768657374206269646465722063616E6E6F742077697468647261772068 PUSH1 0x44 DUP3 ADD MSTORE PUSH6 0x1A5CC8189A59 PUSH1 0xD2 SHL PUSH1 0x64 DUP3 ADD MSTORE PUSH1 0x84 ADD PUSH2 0x316 JUMP JUMPDEST CALLER PUSH0 DUP2 DUP2 MSTORE PUSH1 0x5 PUSH1 0x20 MSTORE PUSH1 0x40 DUP1 DUP3 KECCAK256 DUP1 SLOAD SWAP1 DUP4 SWAP1 SSTORE SWAP1 MLOAD SWAP1 SWAP3 SWAP1 DUP4 SWAP1 DUP4 DUP2 DUP2 DUP2 DUP6 DUP8 GAS CALL SWAP3 POP POP POP RETURNDATASIZE DUP1 PUSH0 DUP2 EQ PUSH2 0x4FE JUMPI PUSH1 0x40 MLOAD SWAP2 POP PUSH1 0x1F NOT PUSH1 0x3F RETURNDATASIZE ADD AND DUP3 ADD PUSH1 0x40 MSTORE RETURNDATASIZE DUP3 MSTORE RETURNDATASIZE PUSH0 PUSH1 0x20 DUP5 ADD RETURNDATACOPY PUSH2 0x503 JUMP JUMPDEST PUSH1 0x60 SWAP2 POP JUMPDEST POP POP SWAP1 POP DUP1 PUSH2 0x546 JUMPI PUSH1 0x40 MLOAD PUSH3 0x461BCD PUSH1 0xE5 SHL DUP2 MSTORE PUSH1 0x20 PUSH1 0x4 DUP3 ADD MSTORE PUSH1 0xF PUSH1 0x24 DUP3 ADD MSTORE PUSH15 0x151C985B9CD9995C8819985A5B1959 PUSH1 0x8A SHL PUSH1 0x44 DUP3 ADD MSTORE PUSH1 0x64 ADD PUSH2 0x316 JUMP JUMPDEST POP POP JUMP JUMPDEST CALLER PUSH1 0x1 PUSH1 0x1 PUSH1 0xA0 SHL SUB PUSH32 0x0 AND EQ PUSH2 0x5C2 JUMPI PUSH1 0x40 MLOAD PUSH3 0x461BCD PUSH1 0xE5 SHL DUP2 MSTORE PUSH1 0x20 PUSH1 0x4 DUP3 ADD MSTORE PUSH1 0x1D PUSH1 0x24 DUP3 ADD MSTORE PUSH32 0x4F6E6C792073656C6C65722063616E2073746172742061756374696F6E000000 PUSH1 0x44 DUP3 ADD MSTORE PUSH1 0x64 ADD PUSH2 0x316 JUMP JUMPDEST PUSH1 0x4 SLOAD PUSH1 0xFF AND ISZERO PUSH2 0x615 JUMPI PUSH1 0x40 MLOAD PUSH3 0x461BCD PUSH1 0xE5 SHL DUP2 MSTORE PUSH1 0x20 PUSH1 0x4 DUP3 ADD MSTORE PUSH1 0x1B PUSH1 0x24 DUP3 ADD MSTORE PUSH32 0x41756374696F6E2068617320616C726561647920737461727465640000000000 PUSH1 0x44 DUP3 ADD MSTORE PUSH1 0x64 ADD PUSH2 0x316 JUMP JUMPDEST PUSH1 0x4 DUP1 SLOAD PUSH1 0x1 PUSH1 0xFF NOT SWAP1 SWAP2 AND OR SWAP1 SSTORE PUSH0 DUP1 SLOAD PUSH4 0xFFFFFFFF NOT AND TIMESTAMP PUSH4 0xFFFFFFFF DUP2 AND SWAP2 SWAP1 SWAP2 OR SWAP1 SWAP2 SSTORE PUSH2 0x64A SWAP1 PUSH3 0x93A80 PUSH2 0xB12 JUMP JUMPDEST PUSH4 0xFFFFFFFF AND PUSH1 0x1 SSTORE PUSH1 0x40 MLOAD PUSH4 0x21421707 PUSH1 0xE1 SHL DUP2 MSTORE PUSH1 0x1 PUSH1 0x1 PUSH1 0xA0 SHL SUB PUSH32 0x0 DUP2 AND PUSH1 0x4 DUP4 ADD MSTORE ADDRESS PUSH1 0x24 DUP4 ADD MSTORE PUSH32 0x0 PUSH1 0x44 DUP4 ADD MSTORE PUSH32 0x0 AND SWAP1 PUSH4 0x42842E0E SWAP1 PUSH1 0x64 ADD PUSH0 PUSH1 0x40 MLOAD DUP1 DUP4 SUB DUP2 PUSH0 DUP8 DUP1 EXTCODESIZE ISZERO DUP1 ISZERO PUSH2 0x6FF JUMPI PUSH0 DUP1 REVERT JUMPDEST POP GAS CALL ISZERO DUP1 ISZERO PUSH2 0x711 JUMPI RETURNDATASIZE PUSH0 DUP1 RETURNDATACOPY RETURNDATASIZE PUSH0 REVERT JUMPDEST POP POP PUSH1 0x40 MLOAD TIMESTAMP SWAP3 POP PUSH32 0xF06A29C94C6F4EDC1085072972D9441F7603E81C8535A308F214285D0653C850 SWAP2 POP PUSH0 SWAP1 LOG2 JUMP JUMPDEST PUSH1 0x1 SLOAD TIMESTAMP GT PUSH2 0x78A JUMPI PUSH1 0x40 MLOAD PUSH3 0x461BCD PUSH1 0xE5 SHL DUP2 MSTORE PUSH1 0x20 PUSH1 0x4 DUP3 ADD MSTORE PUSH1 0x15 PUSH1 0x24 DUP3 ADD MSTORE PUSH21 0x105D58DD1A5BDB881B9BDD08195B991959081E595D PUSH1 0x5A SHL PUSH1 0x44 DUP3 ADD MSTORE PUSH1 0x64 ADD PUSH2 0x316 JUMP JUMPDEST PUSH1 0x4 SLOAD PUSH2 0x100 SWAP1 DIV PUSH1 0xFF AND ISZERO PUSH2 0x79E JUMPI PUSH0 DUP1 REVERT JUMPDEST PUSH1 0x2 SLOAD PUSH1 0x1 PUSH1 0x1 PUSH1 0xA0 SHL SUB AND ISZERO PUSH2 0xA0D JUMPI PUSH1 0x2 SLOAD PUSH1 0x1 PUSH1 0x1 PUSH1 0xA0 SHL SUB AND PUSH0 SWAP1 DUP2 MSTORE PUSH1 0x5 PUSH1 0x20 MSTORE PUSH1 0x40 DUP2 KECCAK256 DUP1 SLOAD SWAP1 DUP3 SWAP1 SSTORE PUSH1 0x3 DUP1 SLOAD SWAP3 SWAP1 SSTORE SWAP1 DUP2 ISZERO PUSH2 0x859 JUMPI PUSH1 0x2 SLOAD PUSH0 SWAP1 PUSH1 0x1 PUSH1 0x1 PUSH1 0xA0 SHL SUB AND PUSH2 0x7F4 DUP4 DUP6 PUSH2 0xB2B JUMP JUMPDEST PUSH1 0x40 MLOAD PUSH0 DUP2 DUP2 DUP2 DUP6 DUP8 GAS CALL SWAP3 POP POP POP RETURNDATASIZE DUP1 PUSH0 DUP2 EQ PUSH2 0x82D JUMPI PUSH1 0x40 MLOAD SWAP2 POP PUSH1 0x1F NOT PUSH1 0x3F RETURNDATASIZE ADD AND DUP3 ADD PUSH1 0x40 MSTORE RETURNDATASIZE DUP3 MSTORE RETURNDATASIZE PUSH0 PUSH1 0x20 DUP5 ADD RETURNDATACOPY PUSH2 0x832 JUMP JUMPDEST PUSH1 0x60 SWAP2 POP JUMPDEST POP POP SWAP1 POP DUP1 PUSH2 0x853 JUMPI PUSH1 0x40 MLOAD PUSH3 0x461BCD PUSH1 0xE5 SHL DUP2 MSTORE PUSH1 0x4 ADD PUSH2 0x316 SWAP1 PUSH2 0xB3E JUMP JUMPDEST POP PUSH2 0x8D2 JUMP JUMPDEST PUSH1 0x2 SLOAD PUSH0 SWAP1 PUSH1 0x1 PUSH1 0x1 PUSH1 0xA0 SHL SUB AND PUSH2 0x871 DUP5 DUP5 PUSH2 0xB2B JUMP JUMPDEST PUSH1 0x40 MLOAD PUSH0 DUP2 DUP2 DUP2 DUP6 DUP8 GAS CALL SWAP3 POP POP POP RETURNDATASIZE DUP1 PUSH0 DUP2 EQ PUSH2 0x8AA JUMPI PUSH1 0x40 MLOAD SWAP2 POP PUSH1 0x1F NOT PUSH1 0x3F RETURNDATASIZE ADD AND DUP3 ADD PUSH1 0x40 MSTORE RETURNDATASIZE DUP3 MSTORE RETURNDATASIZE PUSH0 PUSH1 0x20 DUP5 ADD RETURNDATACOPY PUSH2 0x8AF JUMP JUMPDEST PUSH1 0x60 SWAP2 POP JUMPDEST POP POP SWAP1 POP DUP1 PUSH2 0x8D0 JUMPI PUSH1 0x40 MLOAD PUSH3 0x461BCD PUSH1 0xE5 SHL DUP2 MSTORE PUSH1 0x4 ADD PUSH2 0x316 SWAP1 PUSH2 0xB3E JUMP JUMPDEST POP JUMPDEST PUSH1 0x2 SLOAD PUSH1 0x40 MLOAD PUSH4 0x21421707 PUSH1 0xE1 SHL DUP2 MSTORE ADDRESS PUSH1 0x4 DUP3 ADD MSTORE PUSH1 0x1 PUSH1 0x1 PUSH1 0xA0 SHL SUB SWAP2 DUP3 AND PUSH1 0x24 DUP3 ADD MSTORE PUSH32 0x0 PUSH1 0x44 DUP3 ADD MSTORE PUSH32 0x0 SWAP1 SWAP2 AND SWAP1 PUSH4 0x42842E0E SWAP1 PUSH1 0x64 ADD PUSH0 PUSH1 0x40 MLOAD DUP1 DUP4 SUB DUP2 PUSH0 DUP8 DUP1 EXTCODESIZE ISZERO DUP1 ISZERO PUSH2 0x963 JUMPI PUSH0 DUP1 REVERT JUMPDEST POP GAS CALL ISZERO DUP1 ISZERO PUSH2 0x975 JUMPI RETURNDATASIZE PUSH0 DUP1 RETURNDATACOPY RETURNDATASIZE PUSH0 REVERT JUMPDEST POP POP POP POP PUSH0 PUSH32 0x0 PUSH1 0x1 PUSH1 0x1 PUSH1 0xA0 SHL SUB AND DUP3 PUSH1 0x40 MLOAD PUSH0 PUSH1 0x40 MLOAD DUP1 DUP4 SUB DUP2 DUP6 DUP8 GAS CALL SWAP3 POP POP POP RETURNDATASIZE DUP1 PUSH0 DUP2 EQ PUSH2 0x9E2 JUMPI PUSH1 0x40 MLOAD SWAP2 POP PUSH1 0x1F NOT PUSH1 0x3F RETURNDATASIZE ADD AND DUP3 ADD PUSH1 0x40 MSTORE RETURNDATASIZE DUP3 MSTORE RETURNDATASIZE PUSH0 PUSH1 0x20 DUP5 ADD RETURNDATACOPY PUSH2 0x9E7 JUMP JUMPDEST PUSH1 0x60 SWAP2 POP JUMPDEST POP POP SWAP1 POP DUP1 PUSH2 0xA08 JUMPI PUSH1 0x40 MLOAD PUSH3 0x461BCD PUSH1 0xE5 SHL DUP2 MSTORE PUSH1 0x4 ADD PUSH2 0x316 SWAP1 PUSH2 0xB3E JUMP JUMPDEST POP POP POP JUMP JUMPDEST PUSH1 0x40 MLOAD PUSH4 0x21421707 PUSH1 0xE1 SHL DUP2 MSTORE ADDRESS PUSH1 0x4 DUP3 ADD MSTORE PUSH1 0x1 PUSH1 0x1 PUSH1 0xA0 SHL SUB PUSH32 0x0 DUP2 AND PUSH1 0x24 DUP4 ADD MSTORE PUSH32 0x0 PUSH1 0x44 DUP4 ADD MSTORE PUSH32 0x0 AND SWAP1 PUSH4 0x42842E0E SWAP1 PUSH1 0x64 ADD PUSH0 PUSH1 0x40 MLOAD DUP1 DUP4 SUB DUP2 PUSH0 DUP8 DUP1 EXTCODESIZE ISZERO DUP1 ISZERO PUSH2 0xAB9 JUMPI PUSH0 DUP1 REVERT JUMPDEST POP GAS CALL ISZERO DUP1 ISZERO PUSH2 0xACB JUMPI RETURNDATASIZE PUSH0 DUP1 RETURNDATACOPY RETURNDATASIZE PUSH0 REVERT JUMPDEST POP POP POP POP JUMP JUMPDEST PUSH0 PUSH1 0x20 DUP3 DUP5 SUB SLT ISZERO PUSH2 0xAE1 JUMPI PUSH0 DUP1 REVERT JUMPDEST DUP2 CALLDATALOAD PUSH1 0x1 PUSH1 0x1 PUSH1 0xA0 SHL SUB DUP2 AND DUP2 EQ PUSH2 0xAF7 JUMPI PUSH0 DUP1 REVERT JUMPDEST SWAP4 SWAP3 POP POP POP JUMP JUMPDEST PUSH4 0x4E487B71 PUSH1 0xE0 SHL PUSH0 MSTORE PUSH1 0x11 PUSH1 0x4 MSTORE PUSH1 0x24 PUSH0 REVERT JUMPDEST DUP1 DUP3 ADD DUP1 DUP3 GT ISZERO PUSH2 0xB25 JUMPI PUSH2 0xB25 PUSH2 0xAFE JUMP JUMPDEST SWAP3 SWAP2 POP POP JUMP JUMPDEST DUP2 DUP2 SUB DUP2 DUP2 GT ISZERO PUSH2 0xB25 JUMPI PUSH2 0xB25 PUSH2 0xAFE JUMP JUMPDEST PUSH1 0x20 DUP1 DUP3 MSTORE PUSH1 0xF SWAP1 DUP3 ADD MSTORE PUSH15 0x151C985B9CD9995C8811985A5B1959 PUSH1 0x8A SHL PUSH1 0x40 DUP3 ADD MSTORE PUSH1 0x60 ADD SWAP1 JUMP INVALID LOG2 PUSH5 0x6970667358 0x22 SLT KECCAK256 PREVRANDAO 0xA8 CALLVALUE PUSH4 0x59A7DF00 BLOBHASH 0xE5 PUSH21 0x3B3E06162C98E24FFB90763D1DA293ECA37F0FEDA1 PUSH5 0x736F6C6343 STOP ADDMOD BYTE STOP CALLER "
				},
				"gasEstimates": {
					"creation": {
						"codeDepositCost": "594600",
						"executionCost": "infinite",
						"totalCost": "infinite"
					},
					"external": {
						"bid()": "85111",
						"bids(address)": "2504",
						"end()": "infinite",
						"ended()": "2388",
						"endsAt()": "2340",
						"highestBid()": "2360",
						"highestBidder()": "2392",
						"nft()": "infinite",
						"nftTokenId()": "infinite",
						"seller()": "infinite",
						"start()": "infinite",
						"startAt()": "2355",
						"started()": "2354",
						"withdraw()": "infinite"
					}
				},
				"methodIdentifiers": {
					"bid()": "1998aeef",
					"bids(address)": "62ea82db",
					"end()": "efbe1c1c",
					"ended()": "12fa6feb",
					"endsAt()": "0a09284a",
					"highestBid()": "d57bde79",
					"highestBidder()": "91f90157",
					"nft()": "47ccca02",
					"nftTokenId()": "7e830574",
					"seller()": "08551a53",
					"start()": "be9a6555",
					"startAt()": "c7446565",
					"started()": "1f2698ab",
					"withdraw()": "3ccfd60b"
				}
			},
			"storageLayout": {
				"storage": [
					{
						"astId": 163,
						"contract": "Re-learning Solidity/English Auctions/MyImplementation.sol:EnglishAuction",
						"label": "startAt",
						"offset": 0,
						"slot": "0",
						"type": "t_uint32"
					},
					{
						"astId": 165,
						"contract": "Re-learning Solidity/English Auctions/MyImplementation.sol:EnglishAuction",
						"label": "endsAt",
						"offset": 0,
						"slot": "1",
						"type": "t_uint256"
					},
					{
						"astId": 167,
						"contract": "Re-learning Solidity/English Auctions/MyImplementation.sol:EnglishAuction",
						"label": "highestBidder",
						"offset": 0,
						"slot": "2",
						"type": "t_address"
					},
					{
						"astId": 169,
						"contract": "Re-learning Solidity/English Auctions/MyImplementation.sol:EnglishAuction",
						"label": "highestBid",
						"offset": 0,
						"slot": "3",
						"type": "t_uint256"
					},
					{
						"astId": 171,
						"contract": "Re-learning Solidity/English Auctions/MyImplementation.sol:EnglishAuction",
						"label": "started",
						"offset": 0,
						"slot": "4",
						"type": "t_bool"
					},
					{
						"astId": 173,
						"contract": "Re-learning Solidity/English Auctions/MyImplementation.sol:EnglishAuction",
						"label": "ended",
						"offset": 1,
						"slot": "4",
						"type": "t_bool"
					},
					{
						"astId": 177,
						"contract": "Re-learning Solidity/English Auctions/MyImplementation.sol:EnglishAuction",
						"label": "bids",
						"offset": 0,
						"slot": "5",
						"type": "t_mapping(t_address,t_uint256)"
					}
				],
				"types": {
					"t_address": {
						"encoding": "inplace",
						"label": "address",
						"numberOfBytes": "20"
					},
					"t_bool": {
						"encoding": "inplace",
						"label": "bool",
						"numberOfBytes": "1"
					},
					"t_mapping(t_address,t_uint256)": {
						"encoding": "mapping",
						"key": "t_address",
						"label": "mapping(address => uint256)",
						"numberOfBytes": "32",
						"value": "t_uint256"
					},
					"t_uint256": {
						"encoding": "inplace",
						"label": "uint256",
						"numberOfBytes": "32"
					},
					"t_uint32": {
						"encoding": "inplace",
						"label": "uint32",
						"numberOfBytes": "4"
					}
				}
			},
			"userdoc": {
				"kind": "user",
				"methods": {},
				"version": 1
			}
		}
	}
}